:020000040800F2
:1000000060220020450100082524000889200008FE
:1000100021240008D91200088536000800000000DD
:10002000000000000000000000000000792D000822
:100030003F1C00080000000003250008712F000885
:100040005F0100085F0100085F0100085F01000810
:100050005F0100085F0100085F0100085F01000800
:100060005F0100085F010008ED1C00085F01000847
:100070005F0100085F0100085F0100085F010008E0
:100080005F0100085F0100085F0100085F010008D0
:100090005F0100085F0100085F0100085F010008C0
:1000A0005F0100085F0100085F0100085F010008B0
:1000B000D92F0008253000085F0100085F01000803
:1000C0005F0100085F0100085F0100085F01000890
:1000D0005F010008B5310008513200085F010008D7
:1000E0005F0100085F0100085F0100085F01000870
:1000F0005F0100085F0100085F0100085F01000860
:100100005F0100085F0100084D3000085F01000832
:100110005F0100085F0100085F0100085F0100083F
:100120005F0100085F010008791900085F010008FD
:10013000DFF80CD000F00AFE0048004781480008B4
:10014000602200200648804706480047FEE7FEE799
:10015000FEE7FEE7FEE7FEE7FEE7FEE7FEE7FEE777
:10016000792F000831010008A0F14101192900D8B8
:100170002030704740EA01039B0703D009E008C91B
:10018000121F08C0042AFAD203E011F8013B00F85C
:10019000013B521EF9D27047D2B201E000F8012BA8
:1001A000491EFBD270470022F6E710B513460A46F7
:1001B00004461946FFF7F0FF204610BD421C10F818
:1001C000011B0029FBD1801A704710B5002200E006
:1001D000521C835C8C5CA34201D1002BF8D1D8B2B5
:1001E000E1B2401A10BD034611F8012B00F8012BB3
:1001F000002AF9D11846704730B50546002003465D
:1002000000E05B1C934205D2EC5CC85C201A01D173
:10021000002CF6D130BD00000FB400B58DB010A990
:1002200009900B9000914FF0FF300A9000200C9045
:1002300005480690054807906A4609A80F9900F0FE
:1002400051FC0DB05DF814FB010B00081F0B0008FA
:100250002DE9FF4F087881B09946FF2805D0491C49
:100260002D2804D00024002308E000230BE0012403
:10027000F9E703EB830300EB4303491C0878FF28ED
:10028000F7D104B15B4200200090147801462D2C78
:1002900001D02B2C04D1521C2D2C12D00024009400
:1002A00000251678FF2E0ED00A24A0FB04C801FBFF
:1002B0000481002700FB0711521C16EB0C0069415A
:1002C000EFE70124EBE7994450EA01020ED0002445
:1002D000AA4D2646DFF8A88200F014FD82468B4620
:1002E000B9F1000009DAC9F100071BE0019800210B
:1002F000C0E9001105B0BDE8F08F074612E0F8072D
:1003000007D022462B463046414600F0E4F9064627
:10031000884622462B461046194600F0DCF9044672
:100320000D467F10002FEAD1B9F1000F3246434647
:100330005046594602DA00F040FA01E000F0CBF9ED
:10034000009A0AB181F00041019AC2E90001D1E7A7
:100350002DE9FF4F1F468DB0D7E901464FF0FF381A
:100360002E2045464FF000090B90B9696D1C0E9880
:100370008847396A824688470028F6D1BAF1FF3F9C
:100380000AD024F4D064002E11DDBAF12B0F08D06E
:10039000BAF12D0F0BD102E0404611B0ABE744F4A7
:1003A0008064B9696D1C0E9888478246761E69463E
:1003B000600501D52D2000E02B208DF8000001F113
:1003C000010B0DF1200809E0B9696D1C0E988847F2
:1003D00082460F9844F40074761E0560002E02DDFC
:1003E000BAF1300FF0D00B998A453ED144F0800429
:1003F00006E00F99681CA9F1010944F40074086033
:10040000B9696D1C761E0E98884782463028F0D058
:100410002BE00B998A4505D1200603D444F08004D3
:10042000761E18E0504603F001FB08B30DF11301EE
:10043000761E44F400748B4508D2AAF130000BF804
:10044000010B200607D5A9F1010003E0200602D424
:1004500009F101008146A00502D50F99681C0860CA
:10046000B9696D1C0E9888478246002ED1DC53E096
:10047000002E51DDBAF1650F02D0BAF1450F4BD114
:10048000A00549D5B9696D1C24F44074761E0E98F8
:1004900088478246002E0CDD2B2804D0BAF12D0FA0
:1004A00007D144F48074B9696D1C0E988847824660
:1004B000761EE00501D52D2100E02B2108F8011B57
:1004C000CDF82C8021E00DF12901761E44F4007452
:1004D00088450CD2AAF1300010F0FF0088F8000027
:1004E00002D10B99884509D908F1010806E0E00519
:1004F00001D5244801E042F20F708146B9696D1CB4
:100500000E98884782460F980560002E04DD5046FD
:1005100003F08CFA0028D6D1F9690E988847FF209D
:100520008BF8000088F800000020069007904B46EA
:100530006A4608A906A8FFF78BFEA00502D46FF053
:1005400001002AE714F0240F0AD0E00714D1DDE9F6
:1005500006123868031D3B600068C0E900120BE01A
:10056000DDE9060100F024FA0146E00704D138680D
:10057000021D3A600068016028460EE70000244032
:100580000000F03FF1D8FFFF2DE9FE4F804681EAE1
:100590000300C00F0C46009021F0004123F00045FD
:1005A000B8EB0200A94105D24046214690461C46C0
:1005B0000B46024623F00040104347D0270DC7F3F7
:1005C0000A00C3F30A510290401A019040286BDAE6
:1005D000C3F3130040F4801B0098924620B100231F
:1005E000D2EB030A63EB0B0B01985946C0F14002B2
:1005F000504600F040FA06460D4650465946019ACC
:1006000000F058FA10EB08006141002487EA11520B
:1006100084EAE7731A4340D0009A62B3019A012A30
:100620004FEA075215DC001B61EB02014FF000425C
:1006300002EA0752CDE90042001C41F58011324622
:100640002B4600F011FB03B0BDE8F08F4046214679
:10065000F9E7001B61EB0201001C41F58013001853
:100660005B412018A2F5001747EB030140EAD57063
:10067000B6196D4111E06D084FEA360645EAC075BE
:100680004FEA0752001B61EB0201001C41F580118B
:1006900049084FEA30000019514132462B4603B059
:1006A000BDE8F04F00F0D1BA0098012240000023CD
:1006B000D0EB020263EBE073009821464FEAE0744E
:1006C000B8EB000061EB0401E9E783F000435BE76E
:1006D00081F0004158E72DE9FE4F81EA030404F060
:1006E000004421F0004100944FF0000B23F0004340
:1006F00050EA01045ED052EA03045BD0C3F30A540B
:10070000C1F30A552C44A4F2F3340194A0FB025423
:10071000C1F3130141F48011C3F3130343F48013B5
:1007200001FB024400FB034E840A970A44EA815409
:1007300047EA8357A4FB076802958D0A05FB0785E6
:100740004FEA932C04FB0C542705029D4FEA0658F0
:1007500047EA1637B5EB08056EEB070C870E920ECD
:1007600047EA811742EA8312A7FB0201B6EB0B01AD
:1007700064EB00042B0D43EA0C335E1844EB1C5071
:10078000DA465146E7FB0201C5F313044FEA0B3387
:1007900043EA14534FEA0432019C43EA0603A4F1EE
:1007A0000C040294009CCDE900B400F05DFA03B0A3
:1007B000BDE8F08F00200146F9E72DE9F04D81EA10
:1007C000030404F0004B21F0004514464FF0000AEA
:1007D00023F0004150EA050220D054EA01021DD066
:1007E000C5F30A570246C5F31303C1F31300C1F35F
:1007F0000A5640F4801543F48013A7EB0608101B3B
:10080000D64608F2FD3873EB050002D308F1010863
:1008100001E092185B41B8F1000F03DA00200146B5
:10082000BDE8F08D00204FF48011064684460EE0AE
:10083000171B73EB050705D3121B63EB0503064378
:100840004CEA010C49084FEA300092185B4150EA2B
:100850000107EDD152EA030012D082EA040083EAD4
:100860000501084305D0101BAB4106D2012200232D
:1008700006E000224FF0004302E06FF00102531047
:100880001AEB06004CEB085110EB0A0041EB0B0190
:10089000BDE8F04D00F0D9B996230022114600F0D2
:1008A000A6B90EB5C10F80EAE0700844CA0700215E
:1008B00040F233438DE80E000A460B4600F0D4F9AF
:1008C00003B000BD20F00040C10DC0F3160040F49D
:1008D00000007F2901DA00207047962903DCC1F16E
:1008E0009601C840704796398840704770B5C1F38B
:1008F0000A5201F000450024C1F3130140F2FF3316
:1009000041F480119A4201DA002070BD40F2334375
:100910009A42A2F2334203DC524200F0BBF800E0FC
:1009200090402C43F1D0404270BD00F0004230F0C6
:1009300000400AD0C10D01F56071C0F3160042EA13
:100940000151C2084007114370470020014670471B
:1009500030B5041E71F1000404DB4FF00044404246
:1009600064EB0101141E73F1000405DB1C464FF01B
:100970000043524263EB04038B4208BF824230BD06
:1009800030B5041E71F1000404DB4FF00044404216
:1009900064EB0101141E73F1000405DB1C464FF0EB
:1009A0000043524263EB0403994208BF904230BDBA
:1009B00001F0004330B421F0004150EA010206D0BA
:1009C0000A0DA2F56072C1F31301002A02DC30BCEB
:1009D00000207047440F44EAC104C100E01830BC55
:1009E00000EBC25000F0FAB830B50B4601460020CB
:1009F0002022012409E021FA02F59D4205D303FAE1
:100A000002F5491B04FA02F52844151EA2F1010261
:100A1000F1DC30BD2DE9F05F0546002092469B4693
:100A200088460646814640241BE028464146474604
:100A3000224600F02FF853465A46C01A914110D36F
:100A400011461846224600F016F82D1A67EB0108E9
:100A50004F4622460120002100F00DF817EB000957
:100A60004E41201EA4F10104DFDC484631462A46EF
:100A70004346BDE8F09F202A04DB203A00FA02F149
:100A8000002070479140C2F1200320FA03F319437C
:100A900090407047202A04DB203A21FA02F000211E
:100AA000704721FA02F3D040C2F12002914008437E
:100AB00019467047202A06DBCB17203A41FA02F08C
:100AC00043EAE07306E041FA02F3D040C2F12002AB
:100AD0009140084319467047026811441378016039
:100AE00018467047D16004495161044911620021E0
:100AF0001161114600F042B9D90A0008710D0008D1
:100B0000426842B1016811F8013B23B1521EC0E9AD
:100B10000012184670470121C160881E7047426864
:100B20005AB1C368016843B983688B4205D0491E36
:100B3000521CC0E90012002070474FF0FF30704790
:100B40000FB4002300B589B00CA900910B996FF088
:100B50000042CB601E4B06931E4B07930423CDE946
:100B600001321D4A089202466B460020FFF7F0FB57
:100B700009B05DF814FB70B586B006464FF0FF3043
:100B80000091CDE90101002015460C460490324643
:100B9000694604A8FFF7D4FF03460498211825B13D
:100BA00008B10A4600E022462A6000280DD0002B3A
:100BB00002DD0098884208D0081B0094CDE90104AA
:100BC0003246694604A8FFF7BBFF06B070BD0000BF
:100BD000010B00081F0B0008710D00080029A8BFB9
:100BE0007047401C490008BF20F00100704710B456
:100BF000B0FA80FC00FA0CF050EA010404BF10BC0B
:100C0000704749B1CCF1200421FA04F411FA0CF137
:100C100018BF012121430843A3EB0C01CB1D4FEA70
:100C200000614FEA102042BF002010BC704700EB6B
:100C3000C35010440029A4BF10BC7047401C490099
:100C400008BF20F0010010BC704710B5141E73F1EE
:100C5000000408DA401C41F1000192185B411A437C
:100C600001D120F0010010BD2DE9F04D92469B46C8
:100C700011B1B1FA81F202E0B0FA80F2203290466E
:100C8000FFF7F9FE04460F4640EA0A0041EA0B016D
:100C900053465A46084313D0114653EA010019D06F
:100CA000C8F140025046FFF7F5FE05460E46504695
:100CB00059464246FFF7DFFE084305D0012004E015
:100CC00020463946BDE8F08D0020054346EAE0762F
:100CD0002C4337430A986305E40AA0EB080000227E
:100CE000FD0A44EA47540A3002D500200146E9E7EC
:100CF000010510196941DDE9084500196941BDE8A0
:100D0000F04DA2E70EB540F2334202920022CDE947
:100D100000221346FFF7A8FF03B000BDC1F30A523B
:100D2000C1F3130140F2FF3341F480119A4202DA19
:100D300000200146704740F233439A42A2F2334208
:100D400002DC5242FFF7A6BEFFF795BE064C074DE8
:100D500006E0E06840F0010394E80700984710348B
:100D6000AC42F6D3FFF7E8F9505900087059000873
:100D7000C0B24FF4F05100F097B900002DE9F34FE5
:100D80008BB04FF0000801F10C000C464FF0010B46
:100D900046460DF1080A01906269012101989047C9
:100DA000051E2DD0252D2CD0216A8847C0B162693F
:100DB000012101989047216A88470028F7D1411EF8
:100DC00062690198904700E0761CA1690B988847FA
:100DD000216A88470028F7D1E1690B988847DBE74B
:100DE000A1690B9888470746A84201D1761CD3E732
:100DF000E1690B9888477F1C02D1B8F1000F6FD0D2
:100E000046E1002762693D463946019890472A2805
:100E100004D162690121019890470125DFF884928D
:100E20006269012101989047A0F130010A290AD294
:100E30004F45E5DC07EB870100EB4107303FDFD48E
:100E400045F01005ECE7E90601D46FF000476C2887
:100E50000AD04C2814D0682815D06A280DD07428E0
:100E60001CD07A281AD01DE06269012101989047B0
:100E70006C2802D045F0040514E045F002050DE0B1
:100E800045F020050AE06269012101989047682831
:100E900002D045F0080505E045F4006562690121CE
:100EA00001989047C4E9015765283DD019DC5828BE
:100EB0007AD00CDC452837D004DC252826D0412800
:100EC00031D131E046282FD047282CD12CE05B28A7
:100ED00077D0612828D063287CD0642823D15AE0B9
:100EE000D0E06F2848D008DC66281DD067281BD0CA
:100EF000692821D06E2816D127E0702845D07328A4
:100F000068D0752847D078280DD14DE0A1690B989D
:100F10008847054625283FF469AFE1690B98884763
:100F20006D1C3FF46AAFB3E023466A466FF00100E0
:100F30000B99FFF70DFA9EE045F040006060A807AE
:100F400023464FF0000236D43EE0E8077FF447AF77
:100F50002068011D21600068290501D506701BE786
:100F6000290701D5068017E7A90703D5F117C0E9BE
:100F7000006111E706600FE745F040006060A807D8
:100F800023464FF0080216D41EE040F60E0125EA73
:100F90000100606016E045F040006060A80723464D
:100FA0004FF00A0207D40FE045F040006060A80748
:100FB00008D5234610226FF001000B99AFF3008093
:100FC00059E007E0234610226FF001000B99AFF3C0
:100FD000008050E04FF000094F464B46632802D096
:100FE0005B2806D040E0E80601D40120A06001277C
:100FF0003AE062690121019890475E2805D14FF0DF
:1010000001096269494601989047216939B900216F
:101010000A46534643F82120491C0829FADBB0B39D
:10102000216969B9C11700EBD16253110AEB830141
:1010300022F01F02821A01200B68904003430B60CC
:1010400062690121019890475D28E8D1B9F1000F4C
:1010500009D00020514651F82020D24341F82020E9
:10106000401C0828F7DB02AB224600976FF0010016
:101070000B99AFF3008000280CDA401C08D1BBF1BB
:10108000000F05D04FF0FF300DB0BDE8F08FFFE747
:101090004046F9E7E90701D108F1010806444FF09D
:1010A000000B79E6CCCCCC0C7F2801D9002208E0DB
:1010B000064A02EB5002C007127800D1120902F072
:1010C0000F0201209040084070470000A658000819
:1010D00021B1826842F00102826003E0826822F05E
:1010E00001028260704721B1826842F4807282609E
:1010F00003E0826822F480728260704710B5044673
:101100001248844208D10121401501F02BFC002136
:10111000601501F027FC17E00D48844208D1012139
:10112000001501F01FFC0021201501F01BFC0BE055
:101130000848844208D10121C80301F013FC0021B2
:101140004FF4004001F00EFC10BD000000240140EF
:1011500000280140003C014021B1826842F4801225
:10116000826003E0826822F4801282607047014648
:1011700000208A6802F004020AB1012000E0002089
:101180007047014600208A6802F008020AB1012077
:1011900000E000207047000030B502460020002328
:1011A00050680F4C20400D790C6844EA0524204318
:1011B000506090680B4C2040D1E902542C434D798B
:1011C00044EA450420439060D06A20F470000C7C0F
:1011D000641EE4B2234340EA0350D06230BD0000F5
:1011E000FFFEF0FFFDF7F1FFF0B504460D460020CD
:1011F0000021092D11DDE068A5F10A0606EB46077E
:10120000072606FA07F18843A5F10A0606EB46060B
:1012100003FA06F10843E0600CE0206905EB45079E
:10122000072606FA07F1884305EB450603FA06F19F
:1012300008432061072A0FDA606B561E06EB86070B
:101240001F2606FA07F18843561E06EB860605FAA6
:1012500006F10843606322E00D2A0FDA206BD61FE7
:1012600006EB86071F2606FA07F18843D61F06EB12
:10127000860605FA06F10843206310E0E06AA2F151
:101280000D0606EB86071F2606FA07F18843A2F132
:101290000D0606EB860605FA06F10843E062F0BD8E
:1012A000816841F0080181607047816841F0040164
:1012B0008160704730B10749096841F40001054A6F
:1012C000116005E00349096821F40001014A116039
:1012D000704700000824014000BFFEE738B504460F
:1012E0003D220021631C0020009003E033F9025BE3
:1012F0002944921E012AF9DC05D118788DF80000E6
:10130000BDF90000014488B200EB214101EB21410D
:10131000C84300B20090BDF9000038BD10B50248C6
:1013200000F004F810BD00007409002000210180C5
:101330004180C1807047000000200149087070475B
:101340003900002000200149087070473800002053
:1013500000B587B04FF4004001F0C8FA01214802FF
:1013600001F0F0FA0121042001F0ECFA2348FFF724
:10137000C5FE0220ADF8180000208DF81B0006A95C
:101380001F4800F0CBFD002001908DF808008DF87B
:1013900009004FF4002003900020049001208DF8F4
:1013A000140001A91548FFF7F7FE072301221021B9
:1013B0001248FFF719FF0120FFF77CFF01210F48BA
:1013C000FFF791FE01210D48FFF7C6FE01210B48F2
:1013D000FFF77EFE0948FFF763FF00BF0748FFF7EE
:1013E000D0FE0028FAD10548FFF75FFF00BF034891
:1013F000FFF7BDFE0028FAD107B000BD0024014070
:101400000008014000B58BB00121084601F07AFACE
:10141000114800F0EBFA11480090114801900020AB
:101420000290012003900020049005904FF48070FA
:1014300006908000079020200890C00109900020AD
:101440000A906946044800F096FB0121024800F02A
:10145000C1FA0BB000BD0000080002404C2401405E
:101460004600002003B58DB00121022001F04AFAA8
:101470001A4800F0BBFA1A4802900D9803900E9893
:1014800005901020049000200690802007904000D6
:1014900008908000099020200A9000020B90002004
:1014A0000C9002A90D4800F066FB3A208DF804006C
:1014B00002208DF8050001208DF806008DF8070048
:1014C00001A800F0C9FF01220221044800F04AFBF4
:1014D0000121024800F07EFA0FB000BD3004024046
:1014E0000874004008B50121042001F02BFA012105
:1014F000202001F027FA4FF48070ADF8000003209F
:101500008DF8020010208DF8030069460D4800F0A8
:1015100005FD00224FF480710A4800F093FD04207D
:10152000ADF8000003208DF8020010208DF80300B4
:101530006946054800F0F2FC01220421024800F04F
:1015400081FD08BD00080140001401401FB50121C4
:10155000082001F0F7F90121084601F0F3F94020D5
:10156000ADF80C0003208DF80E0010208DF80F0050
:1015700003A9224800F0D2FC002240211F4800F0BD
:1015800061FD2020ADF80C0003208DF80E00102026
:101590008DF80F0003A9194800F0C0FC002220219B
:1015A000164800F04FFD1020ADF80C0048208DF8D3
:1015B0000F0003A9114800F0B1FC0421012000F044
:1015C0008DFC1020019001208DF80A0000208DF87C
:1015D000080008208DF8090001A800F0B1FB0A20DE
:1015E0008DF8000002208DF801008DF80200012026
:1015F0008DF80300684600F02FFF1FBD000C01406E
:1016000070B5044601250020124908701248047084
:1016100004F001024021114800F014FDC4F340021F
:1016200020210E4800F00EFD03F04AF9064600BFE7
:1016300003F022F908B9012000E00020051E04D0C3
:1016400003F03EF9801B6428F2D90DB9012070BD6A
:101650000020FCE75100002050000020000C014059
:1016600010B54FF4A06000F02FFF10BD10B501F0D1
:1016700089F94FF4803001F047FA01F0A3FA0446EB
:10168000012C24D1102000F00FFC022000F01AFCE5
:10169000002001F02DFA002001F068FAA00201F00C
:1016A00059FA4FF4E011200401F072FA012001F020
:1016B00069FA00BF392001F0F5F90028FAD00220BC
:1016C00001F074FA00BF01F00BFA0828FBD110BD3D
:1016D0007FB505460C460121084601F023F9ADF817
:1016E0000850ADF804400020ADF80A00ADF806003F
:1016F00001A94FF0804001F0FFFC01221146900744
:1017000001F0E8FC1C208DF8000000208DF801009D
:1017100003208DF8020001208DF80300684600F0D8
:101720009BFE0121880701F0B8FC7FBD7FB505460F
:101730000C460121022001F0F5F8ADF80850ADF893
:1017400004400020ADF80A00ADF8060001A91048D9
:1017500001F0D2FC20210E4801F0C5FC0122114607
:101760000B4801F0B7FC1D208DF8000003208DF818
:10177000010000208DF8020001208DF8030068466A
:1017800000F06AFE0121024801F087FC7FBD0000E5
:10179000000400407FB505460C460121082001F0F9
:1017A000C1F8ADF80850ADF804400020ADF80A00CB
:1017B000ADF8060001A90E4801F09EFC0122114679
:1017C0000B4801F087FC32208DF8000000208DF8D6
:1017D000010003208DF8020001208DF80300684607
:1017E00000F03AFE0121024801F057FC7FBD0000E5
:1017F000000C004010B586B004460121880301F0BA
:10180000A1F80121042001F09DF84FF40070ADF81B
:10181000140018208DF8170003208DF8160005A974
:10182000224800F07BFB4FF48060ADF814000420E8
:101830008DF8170005A91D4800F070FB01A801F004
:101840004AFE01940020ADF80800ADF80A00ADF89A
:101850000C000C20ADF80E000020ADF8100001A91E
:10186000134801F0C3FD25208DF8000000208DF8FD
:1018700001008DF8020001208DF80300684600F099
:10188000EBFD012240F22551094801F08AFD0122B9
:1018900040F22771064801F084FD0121044801F05F
:1018A0003DFD00200349087006B010BD000801404E
:1018B000003801404400002010B586B004460121E4
:1018C000480401F02FF80121042001F03BF8042026
:1018D000ADF8140018208DF8170003208DF81600BD
:1018E00005A9224800F01AFB0820ADF814000420D6
:1018F0008DF8170005A91D4800F010FB01A801F0A4
:10190000EAFD01940020ADF80800ADF80A00ADF83A
:101910000C000C20ADF80E000020ADF8100001A95D
:10192000134801F063FD26208DF8000000208DF89B
:10193000010001208DF802008DF80300684600F0D8
:101940008BFD012240F22551094801F02AFD0122B8
:1019500040F22771064801F024FD0121044801F0FE
:10196000DDFC00200349087006B010BD00080140EE
:10197000004400405600002010B50B4800F0DCF891
:1019800080B13A2000F01F0201219140074A43092B
:1019900042F8231000BF064800F00EF8054803C8BF
:1019A000FFF760FD10BD00000002001080E200E0C3
:1019B000000100104800002000F0805111B10349DF
:1019C000086001E0024948607047000004040240DA
:1019D0000000024021B1026842F00102026004E00E
:1019E00002684FF6FE731A400260704701684FF6B6
:1019F000FE72114001600021016041608160C160A0
:101A00004B49884208D14A490839496841F00F01D9
:101A1000474A083A51608AE045491431884208D162
:101A200043490839496841F0F001414A083A516098
:101A30007DE03F492831884208D13D49083949684D
:101A400041F470613A4A083A516070E038493C31DB
:101A5000884208D136490839496841F47041344A0E
:101A6000083A516063E032495031884208D1304928
:101A70000839496841F470212D4A083A516056E00E
:101A80002B496431884208D129490839496841F411
:101A90007001274A083A516049E025497831884267
:101AA00008D123490839496841F07061204A083A51
:101AB00051603CE01F49884206D1011F096841F08E
:101AC0000F01021F116032E01A491431884208D117
:101AD0001849091F096841F0F001164A121F1160E8
:101AE00025E014492831884208D11249091F0968A4
:101AF00041F470610F4A121F116018E00D493C312A
:101B0000884208D10B49091F096841F47041094A0C
:101B1000121F11600BE007495031884207D1054977
:101B2000091F096841F47021024A121F11607047B1
:101B3000080002400804024001460020002201F093
:101B4000805313B1054B1A6801E0054B1A6802EA8D
:101B500001030BB1012000E00020704700040240A7
:101B6000000002401AB103680B43036002E00368FF
:101B70008B430360704710B50022026847F6F0738C
:101B80009A430C6A8B6823430C6923434C692343B3
:101B90008C692343CC6923434C6A23438C6A2343D7
:101BA0001A430260CB6843600B6883604B68C36074
:101BB00010BD30B50346002016E0B3F900509C6814
:101BC000645D0C541C88641C24B21C80B3F9004072
:101BD000B3F90450AC4201DB00241C80441C20B249
:101BE000DC88641E24B2DC80B3F90640002C01DDE1
:101BF0009042E2DB30BD30B50346002018E0B3F977
:101C000000509C6834F8154021F810401C88641C72
:101C100024B21C80B3F90040B3F90450AC4201DB9C
:101C200000241C80441C20B2DC88641E24B2DC80AA
:101C3000B3F90640002C01DD9042E0DB30BD704777
:101C400010B5094B5A785968012009E001EBC0032F
:101C5000DB795B1E5BB201EBC004E371431C58B23D
:101C60009042F3DB10BD00002C00002001B50449B8
:101C70000098086000BF024800680028FBD108BD3A
:101C80008000002070B5184C63786168002228E05D
:101C900001EBC20494F90740002C20DC104615E04B
:101CA000114C2578841CA54209DB01EBC005441CBE
:101CB00001EBC40426682E6064686C6004E001EBEC
:101CC000C004002525606560441C60B29842E7DBD3
:101CD0005C1EE3B2044C6478641E034D6C70541CAB
:101CE00062B29A42D4DB70BD2C00002010B51020E7
:101CF00000F012F8012805D1102000F007F80120AB
:101D00000149087010BD0000510000200149086021
:101D10007047000014040140014600200022074BD8
:101D20001B6803EA0102054B14331B680B4013B117
:101D30000AB1012000E000207047000000040140CB
:101D4000002123498279002A3AD00A4612680368A2
:101D50009A430B461A600A1D126803689A430B1DCA
:101D60001A60027911440A6803681A430A60184A23
:101D70000832126803689A43154B08331A601A1D1B
:101D8000126803689A43124B0C331A604279102A86
:101D90000ED11A1F126803681A430D4B08331A60DC
:101DA0001A1D126803681A43094B0C331A600DE0C0
:101DB0000749427911440A6803681A430A6005E03A
:101DC000027911440A6803689A430A607047000068
:101DD0000004014070B50346002016E00C5CB3F926
:101DE00002609D68AC555C88641C24B25C80B3F9C9
:101DF0000240B3F90450AC4201DB00245C80441C77
:101E000020B2DC88641C24B2DC80B3F90640B3F94C
:101E10000450AC4201DA9042E0DB70BD70B503467D
:101E2000002018E031F81040B3F902609D6825F8F1
:101E300016405C88641C24B25C80B3F90240B3F99C
:101E40000450AC4201DB00245C80441C20B2DC88DE
:101E5000641C24B2DC80B3F90640B3F90450AC42F0
:101E600001DA9042DEDB70BD10B501200449087034
:101E7000012240F22771034801F093FA10BD0000DF
:101E8000440000200038014010B5012004490870CA
:101E9000012240F22771034801F083FA10BD0000CF
:101EA00056000020004400400549096821F0100157
:101EB000034A116011460968014311607047000030
:101EC0000020024001460020034A106800F038005C
:101ED00008431060704700000020024030B5002227
:101EE0008B071C0F0F2303FA04F20B4B8C1053F8D3
:101EF00024309343084C8D1044F8253023468C1031
:101F000053F824308C07240F00FA04F42343024CC6
:101F10008D1044F8253030BD080001402DE9F04116
:101F2000024600250026002000230024002791F807
:101F300003C00CF00F0591F803C00CF0100CBCF1BD
:101F4000000F03D091F802C04CEA050591F800C0DB
:101F5000BCF1000F31D0146800202BE04FF0010CD1
:101F60000CFA00F3B1F800C00CEA03069E4220D13F
:101F700083004FF00F0C0CFA03F7BC4305FA03FC87
:101F80004CEA040491F803C0BCF1280F06D14FF0CD
:101F9000010C0CFA00FCC2F814C00AE091F803C06E
:101FA000BCF1480F05D14FF0010C0CFA00FCC2F84F
:101FB00010C0401C0828D1D31460B1F800C0BCF197
:101FC000FF0F34DD546800202EE000F1080C4FF0C4
:101FD000010808FA0CF3B1F800C00CEA03069E42AF
:101FE00021D183004FF00F0C0CFA03F7BC4305FA24
:101FF00003FC4CEA040491F803C0BCF1280F05D19E
:1020000000F1080C08FA0CF8C2F8148091F803C02B
:10201000BCF1480F07D100F1080C4FF0010808FA95
:102020000CF8C2F81080401C0828CED35460BDE8DC
:10203000F08102460020D3680B400BB1012000E084
:10204000002070470AB1016100E041617047000063
:1020500001480078704700003900002001480078EE
:1020600070470000380000200020014908787047C0
:102070005100002010B50446402202492046FEF7D8
:1020800079F810BD9000002000BFFEE710B540F2C7
:10209000CF2140F21F30FFF749FBFFF759F9FFF757
:1020A000B1F964220249034800F004F910BD0000B0
:1020B000800900207409002010B500F05DFF00F0D9
:1020C00066F800F033F84FF4165000F006F94FF4BC
:1020D000E13000F02DF900F0E1F800F007F800F031
:1020E000A9F8FFF7D3FF00F005F810BD10B5FFF712
:1020F000F9F910BD10B5FFF729FA0020FFF780FAB3
:102100000120074908704FF47A70064908804FF69D
:10211000FF700549088002F039FB0349088010BDB3
:1021200051000020540000205200002010B5FFF79D
:1021300097FA10BD10B540210648FEF734F800208C
:102140000549087005490870054908700549086087
:1021500010BD0000900000200C0000200D000020A9
:102160000E00002010000020704730B50B46002400
:10217000048044808280C4808360002104E00024C5
:1021800085686C544C1C21B29142F8DB30BD10B50F
:10219000FFF76CFA10BD00000CB5002000218DF88F
:1021A00000108DF801108DF803108DF807108DF8D0
:1021B00002108DF804108DF806108DF8051010210E
:1021C0000A4A11700021517000BF08E0084901EB74
:1021D000C001009A0A60019A4A60411C08B21028A6
:1021E000F4DB0349014A51600CBD00002C000020C3
:1021F000DA0000201CB5FFF7CFFF4FF6FF74201266
:102200008DF80000E0B28DF8010000208DF8030089
:1022100078208DF80700684600F0B4F81CBD7047C0
:1022200010B5FFF787FFFFF79FFFFFF7F8FFFFF7F6
:10223000E1FF10BD30B5164800684FF47A72B0FB6C
:10224000F2F1B1F1807F01D301201DE021F07F4048
:10225000401E4FF0E022506150170F22002807DA8D
:1022600013071D0E0B4B00F00F04241F1D5503E038
:1022700013071C0E084B1C5400BF00204FF0E02237
:10228000906107201061002008B100BFFEE730BD5B
:102290006C00002018ED00E000E400E010B54721DC
:1022A00040F2E730FFF714FA472140F2E730FFF73A
:1022B00071FA10BD30B50B46002404804480828042
:1022C000C4808360002105E00024856825F8114062
:1022D0004C1C21B29142F7DB30BD10B5044600F032
:1022E00005F82046FFF786FA10BD000010B500245F
:1022F00006E000200A4908550A490855601C04B246
:10230000B4F5806FF5DB4FF4806205490648FFF7AE
:102310002CFF4FF4806203490448FFF726FF10BDED
:1023200074010020740500205C0100206801002079
:1023300010B5044600F004F82046FFF7BDFA10BDC2
:1023400010B5002406E000200A4908550A4908553E
:10235000601C04B2B4F5806FF5DB4FF48062054970
:102360000648FFF702FF4FF4806203490448FFF775
:10237000FCFE10BD600A0020600E0020480A00200C
:10238000540A002010B5014601220C484378007819
:10239000401E984204DC0AB9012010BD0020FCE771
:1023A00006484078401C054C6070054800EBC300AF
:1023B0000C6804604C6844601046EEE72C00002076
:1023C000DA00002070B5044612480088401C11490C
:1023D000088008460088A0421BDB002008804FF4DC
:1023E00080710D48FFF725FEC0F10100C5B22A46F5
:1023F0004FF480710848FFF725FE04210748FFF7D6
:1024000018FEC0F10100C5B22A4604210348FFF7B7
:1024100019FE70BD0A0000200008014000140140B0
:1024200000BFFEE77047000000F01F02012191404D
:10243000024A430942F823107047000080E200E09E
:1024400000F01F0201219140024A430942F8231083
:102450007047000080E200E070B5002100230F22E9
:10246000C47804B3154C246804F4E064C4F5E06453
:10247000210AC1F10403CA40447804FA03F18478C4
:102480001440214309010E4C0678A155047804F04C
:102490001F050124AC4005786D11AD0005F1E02564
:1024A000C5F8004109E0047804F01F050124AC40A0
:1024B000044D0678761145F8264070BD0CED00E01D
:1024C00000E400E080E100E002490143024A1160BB
:1024D000704700000000FA050CED00E070B50446FE
:1024E00000252078012805D02078022802D0207805
:1024F000032804D101252046FEF7F0FEE087284698
:1025000070BD704710B58EB0342101A8FDF74BFEA9
:102510000024FFF79DFD80B100F08AF8084800789C
:10252000401C0749087008460078022803DB002099
:10253000087000F01DFCFEF7FFFE0EB010BD00009D
:10254000080000202DE9FE4FFFF788FD002859D034
:10255000012102A800F0E6FB18B19DF8080000F088
:1025600073F929480088401C2749088008460088DC
:10257000B0F5C87F41DB01A800F0AAFB002839D0E4
:10258000FEF7CCFEBDF80400FEF786F98046FEF7A4
:10259000CCF906461D4A1E4BFEF79DF80446FEF791
:1025A00007FA00900098FEF7C0F98246194A1A4BC4
:1025B000FEF78EF88046194A194BFEF7FEF80646DC
:1025C0000022184BFDF7E0FF0446FEF7F1F90090FA
:1025D0000098FEF777F91449144A12788854134882
:1025E0000078401C1149087008460078052801DB76
:1025F00000200870002004490880FA20FFF7E2FE5E
:10260000FEF7A0FEBDE8FE8F00000020B4D934E73D
:102610000C684A3FE17A14AE47E1F63F22FDF675B9
:10262000E09C713F000039400300002002000020C0
:102630002DE9F047CCB0C8211AA8FDF7B4FD6822F7
:102640002A496846FDF796FDC8211AA800F078FBD4
:102650008146B9F1650F02DA4CB0BDE8F0871AA8DF
:1026600001F0F2FF1AA801F0E3FE054620A128467A
:1026700001F0C8FE064620A1284601F0C3FE04462C
:102680001EA1284601F0BEFE80461EA1284601F08C
:10269000B9FE82461DA1504601F0B4FE074625B1A1
:1026A0001EB114B1B8F1000F00D1D5E71B48216964
:1026B000FDF78BFD28B11AA0D8F81010FDF785FDA5
:1026C00000B9C9E715480021016041600181216915
:1026D000FDF789FD14A03169FDF777FD08B907B151
:1026E00000BF284601F062FE00BFB5E7E8580008C9
:1026F0006D6574686F6400006964000076657273CC
:10270000696F6E00706172616D7300004144435FD8
:10271000706572696F645F5300000000D000002094
:10272000312E302E300000007468696E672E73659C
:1027300072766963652E70726F70657274792E732C
:10274000657400002DE9FE4F824601F009FE8146C6
:1027500001F006FE054601F003FE0646204821A1D1
:102760000268684601F024F8684601F005FE8046DC
:102770001B480068401C1A49086042461AA1484696
:1027800001F074FD19A21AA1484601F09DFD002236
:10279000194B1AA1304601F079FD324619A128469D
:1027A00001F064FD2A461DA1484601F05FFD1DA20F
:1027B00023A1484601F088FD484601F0BFFE0746C8
:1027C0003846FDF7FBFCC4B22146384600F0B0FFA6
:1027D000484601F0EBFD384601F010F8BDE8FE8FE9
:1027E000140000202564000069640000312E3000D0
:1027F00076657273696F6E000000224076616C75B9
:102800006500000046313033736869705F74656D30
:1028100070657261747572650000000070617261AC
:102820006D7300007468696E672E6576656E742E30
:1028300070726F70657274792E706F73740000001F
:102840006D6574686F64000030B5B1B00546402115
:1028500011A8FDF7A8FC2DE001A8FFF70BFC402212
:1028600001A921A8FDF786FC9DF88400012802D06B
:1028700002281DD104E00DF18500FFF763FF18E089
:102880000DF1850000F0B2FE04468DF8444022466A
:102890000CA10DF1450000F08BFF3D2021AA009016
:1028A00091789DF8850011AB002200F066FA00E0F7
:1028B00000BF00BF284600F01BFE0028CCD131B07D
:1028C00030BD00004F4B3D25642C545950455F529C
:1028D0004F5554452041434B000000000146C88835
:1028E00008B9012070470020FCE7000001460020E5
:1028F000034A506820F4404008435060704700008D
:102900000010024029B1064A52690243044B5A6141
:1029100004E0034A52698243014B5A617047000048
:102920000010024029B1064AD2690243044BDA6121
:1029300004E0034AD2698243014BDA617047000028
:102940000010024029B1064A92690243044B9A6181
:1029500004E0034A92698243014B9A617047000088
:102960000010024029B1064AD2680243044BDA60E3
:1029700004E0034AD2688243014BDA6070470000EA
:10298000001002400F48006840F001000D49086047
:10299000084640680C4908400A49486008460068F3
:1029A0000A490840074908600846006820F480206A
:1029B00008600846406820F4FE0048604FF41F009D
:1029C00088607047001002400000FFF8FFFFF6FE2D
:1029D00030B500210022002400232D4D6D6805F044
:1029E0000C0121B1042905D0082923D105E0294D86
:1029F000056022E0274D05601FE0254D6D6805F458
:102A00007012234D6D6805F48034022505EB924267
:102A10001CB9214D554305600BE01D4D6D6805F453
:102A200000351DB11C4D5543056002E0194D55435D
:102A3000056002E0174D056000BF00BF144D6D68D2
:102A400005F0F0010909154D6B5C0568DD40456036
:102A50000F4D6D6805F4E061090A104D6B5C456827
:102A6000DD4085600A4D6D6805F46051C90A0B4D63
:102A70006B5C4568DD40C560054D6D6805F44041FF
:102A8000890B074D6B5CC568B5FBF3F5056130BD7F
:102A90000010024000127A0000093D00570000209B
:102AA0006700002010B501460022002300204A11D3
:102AB000012A02D1094C236806E0022A02D1074C00
:102AC000236A01E0054C636A01F01F02012494406F
:102AD0001C400CB1012000E0002010BD001002409D
:102AE0000248406800F00C007047000000100240EF
:102AF00001460020034A506820F0F000084350606F
:102B000070470000001002401149096821F480312B
:102B10000F4A11601146096821F480211160B0F557
:102B2000803F03D0B0F5802F0ED106E00849096838
:102B300041F48031064A116007E00549096841F413
:102B4000A021034A116000E000BF00BF70470000F1
:102B50000010024001460020034A506820F4E06063
:102B600008435060704700000010024001460020FA
:102B7000034A506820F4605040EAC100506070473A
:102B80000010024001490866704700000000424200
:102B900002460020044B586820F47C1042EA0103EE
:102BA0001843014B58607047001002400146002056
:102BB000034A506820F0030008435060704700004B
:102BC0000010024038B5002000900024002500BF0E
:102BD0003120FFF767FF05460098401C00900098E1
:102BE000B0F5A06F01D0002DF2D03120FFF75AFFD1
:102BF00008B1012400E00024204638BD70B5064627
:102C00000C460025FFF730FA18B14FF47A701A49D4
:102C100008801A48007808B9012507E00020FEF76F
:102C2000EFFC05464FF47A7013490880ADB11248A5
:102C30000088A04211DB2146304600F049FDA04249
:102C400004DA0FA001F000FD002070BD0A480088E2
:102C5000001B094908800120F7E71DB910A001F009
:102C6000F3FC06E004480088A04202DA11A001F05B
:102C7000EBFC0020E9E70000540000205000002099
:102C8000526164696F53656E6444617461D6D0B4F7
:102C9000AEBFDABBBAB3E5C7F8D2E7B3F6000000BF
:102CA000C7D0BBBBB4ABCAE4C4A3CABDCAA7B0DC1F
:102CB00034363200CAFDBEDDCCABB6E06C6F72615B
:102CC000BDD3CAD5BBBAB3E5C7F8D2E7B3F60000A7
:102CD00070B504460025012221460348FEF78BFF0C
:102CE000C5B2284670BD00007409002070B50446C6
:102CF0000025012221460348FEF75BFFC5B22846A6
:102D000070BD00005C01002070B504460025012262
:102D100021460348FEF74DFFC5B2284670BD0000AE
:102D2000480A002070B504460D4600262A46214672
:102D30000248FEF73EFFC6B2304670BD6801002073
:102D400070B504460D4600262A4621460248FEF785
:102D500030FFC6B2304670BD540A002010B5FEF7F1
:102D60006FFFFEF78FFF00F027FC00F055F810BD55
:102D700010B5FFF7F3FF10BD70472DE9F04190B09B
:102D800005460E4617461C46DDF8588001208DF892
:102D90000000424621460DF10100FDF7EBF96B46BC
:102DA0003A463146284600F013F810B0BDE8F081ED
:102DB00010B50446E1B2054800F089FB00BF402190
:102DC000024800F0B7FA0028F9D010BD00440040D6
:102DD0002DE9F04192B005460E4617461C464FF0CD
:102DE00000088DF805508DF806608DF807702046B4
:102DF000FFF774FB8046B8F1000F09DD4022214641
:102E000002A8FDF7B7F943210DF10500FFF7F6FE23
:102E100012B0BDE8F081000010B590B040216846C6
:102E2000FDF7C1F901F0B2FC044620128DF8000054
:102E3000E0B28DF8010007480749097800EBC100AE
:102E4000C0788DF802003D21684600F007F810B008
:102E500010BD0000DA0000203400002030B591B031
:102E600004460D4602208DF804002A4621460DF145
:102E70000500FDF77FF901AB0022FF210846FFF7AF
:102E8000A7FF11B030BD10B500F002F810BD000072
:102E90000CB50020019000903348006840F4803069
:102EA0003149086000BF3048006800F400300090ED
:102EB0000198401C0190009818B90198B0F5A06FD6
:102EC000F1D12948006800F4003010B101200090D1
:102ED00001E0002000900098012843D123480068B9
:102EE00040F01000214908600846006820F0030007
:102EF00008600846006840F0020008601A48406810
:102F0000194948600846406848600846406840F4EF
:102F1000806048600846406820F47C10486008469D
:102F2000406840F4E81048600846006840F080704F
:102F3000086000BF0C48006800F000700028F9D05D
:102F40000948406820F00300074948600846406887
:102F500040F00200486000BF0348406800F00C00E9
:102F60000828F9D10CBD00000010024000200240EA
:102F700010B500F013F910BD10B51348006840F00B
:102F800001001149086008464068104908400E4990
:102F90004860084600680E4908400B49086008462A
:102FA000006820F4802008600846406820F4FE0095
:102FB00048604FF41F008860FFF765FF4FF0006026
:102FC0000449086010BD0000001002400000FFF836
:102FD000FFFFF6FE08ED00E010B50121880700F0C4
:102FE00068F8012803D10121800700F053F80A484E
:102FF0000088401C0849088008460088022804DB35
:103000000020088001200549087005480068401C20
:103010000349086010BD0000400000203800002077
:103020003C00002010B50121064800F042F818B11C
:103030000121044800F02EF80348008800F024FB2A
:1030400010BD0000000400404600002010B5012122
:103050000D4800F02EF8012803D101210A4800F0A4
:1030600019F80A480088401C00B208490880084640
:10307000B0F90000B0F57A7F04DB00200880012061
:103080000349087010BD0000000C00404200002001
:1030900039000020CA430282704721B1028842F001
:1030A0000102028004E002884FF6FE731A4002809B
:1030B000704730B50246002000230024158A05EA37
:1030C0000103958905EA010413B10CB1012000E068
:1030D000002030BD1AB183890B43838102E08389CC
:1030E0008B438381704782884FF68F731A408280AA
:1030F00082880A4382807047002202881D4B9842D2
:103100000ED01D4B98420BD0B0F1804F08D01B4B16
:10311000984205D01A4B984202D01A4B984204D1DB
:103120004FF68F731A404B881A43174B984207D0BB
:10313000164B984204D04FF6FF431A40CB881A43EF
:1031400002808B8883850B8803850A4B98420BD0BD
:10315000094B984208D00E4B984205D00D4B98422F
:1031600002D00D4B984201D10B7A03860123838252
:1031700070470000002C0140003401400004004072
:1031800000080040000C0040001000400014004007
:1031900000400140004401400048014004480068EC
:1031A00020B103480068401E0149086070470000D4
:1031B0008000002008B50720009040F225512148EA
:1031C00000F0C5F858B12520FFF72EF91D4800F092
:1031D00079F9C0B200909DF8000000F061FA082172
:1031E000184800F0A7F8012806D10821154800F07A
:1031F0007DF8144800F066F940F22771114800F09C
:10320000A6F8F0B140F227710E4800F078F82520BA
:10321000FFF70AF96846FFF769FD012804D19DF818
:103220000010084800F053F90748FFF757FB40B17A
:10323000002006490870002240F22771014800F082
:10324000B0F808BD003801405C01002044000020B7
:1032500008B50720009040F22551214800F077F88A
:1032600058B12620FFF7ECF81D4800F02BF9C0B24A
:1032700000909DF8000000F01FFA0821184800F0A7
:1032800059F8012806D10821154800F02FF81448F4
:1032900000F018F940F22771114800F058F8F0B129
:1032A00040F227710E4800F02AF82620FFF7C8F8F0
:1032B0006846FFF729FD012804D19DF80010084851
:1032C00000F005F90748FFF709FB40B10020064967
:1032D0000870002240F22771014800F062F808BD32
:1032E00000440040480A00205600002001F400720B
:1032F000B2F5007F00D100BFCA430280704710B50D
:103300000022002340F66A14A14200D100BF0A1235
:1033100001249440A3B2DC43048010BD21B1828912
:1033200042F40052828104E082894DF6FF731A4014
:103330008281704702460020B1F5007F00D100BFB6
:1033400013880B400BB1012000E00020704770B5DE
:103350000246002400230025002040F66A16B142F0
:1033600000D100BFC1F3421501F01F03012606FA88
:1033700003F3012D02D19689334006E0022D02D1DC
:10338000168A334001E0968A33400C12012606FA71
:1033900004F41688344013B10CB1012000E0002081
:1033A00070BDF0B50346002400260025002040F63D
:1033B0006A17B94200D100BF1846C1F3421401F0A8
:1033C0001F06012707FA06F5012C01D10C3004E095
:1033D000022C01D1103000E014301AB107682F43DD
:1033E000076002E00768AF430760F0BD2DE9F047D2
:1033F00086B005460E460024A24600BFA14600271F
:10340000B08900B100BF2F462C8A4CF6FF700440F3
:10341000F08804432C82AC894EF6F3100440B08847
:1034200031890843718908430443AC81AC8A4FF663
:10343000FF400440B0890443AC8201A8FFF7C8FAFA
:103440001F48874202D1DDF810A001E0DDF80CA092
:10345000A88900F4004040B10AEBCA0000EB0A1052
:1034600031684900B0FBF1F807E00AEBCA0000EB55
:103470000A1031688900B0FBF1F86420B8FBF0F065
:1034800004012009642101FB1089A88900F400408F
:1034900040B1322000EBC900B0FBF1F000F00700B2
:1034A000044308E0322000EB09106421B0FBF1F086
:1034B00000F00F0004432C8106B0BDE8F087000047
:1034C0000038014001468888C0F308007047C1F306
:1034D0000802828070474FF41651016000218180FC
:1034E000C18001810C214181002181817047000050
:1034F0002DE9F0410446002501F0E2F90746274E88
:103500002748007878B327480068381A32281DD237
:1035100025480078401E345423480078401C224936
:10352000087022480078401E20490870084600783C
:1035300000282BDC1C480078402827D1701E00F0A2
:1035400037F805460020164908701FE03F2017494C
:1035500008700120144908701048401E04700120B2
:103560000F49087012E0FFE7012C03D0022C01D0B4
:10357000032C0BD13F200D49087001200A49087027
:103580000648401E047001200549087001F098F9B2
:10359000044908602846BDE8F08100009100002041
:1035A0000D000020100000200C0000200E00002064
:1035B000014601207047000070B50A494A784C68FE
:1035C000FF250023002008E004EBC006F178A942A3
:1035D00001DA0D460346411CC8B29042F4DB0249B1
:1035E0000B7070BD2C000020340000207CB5044618
:1035F00000266178207801F0A7F80546002D05DB4C
:10360000E9B2204600F01CF8064616E020788DF856
:10361000000060788DF80100A078FF2802DAA07819
:10362000401C00E0FF20C0B28DF8030064208DF83C
:1036300007006846FEF7A6FE064630467CBD000041
:103640007CB503460E4D6C6801209A7804EBC105E9
:103650002E6800966D680195FF2A09DC01D1FF25CF
:1036600000E0551CEDB28DF8035064258DF807502D
:1036700004EBC105009E2E60019E6E607CBD0000C3
:103680002C00002000BFFEE731B50024012269466E
:103690000248FEF7C3FBC4B2204638BD74090020BF
:1036A00031B50024012269460248FEF793FBC4B2FB
:1036B000204638BD6801002031B50024012269464A
:1036C0000248FEF787FBC4B2204638BD540A0020EA
:1036D00070B506460C460025224631460948FEF7DD
:1036E00079FBC5B2B5F5806F04DA0748007808B9F0
:1036F000FEF7BAFBA54203DA611B04A000F048F80C
:10370000284670BD5C010020440000205541525401
:1037100031B7A2CBCDBBBAB3E5C7F8D2E7B3F62C2D
:10372000BBB9D2AA2564B8F6D7D6BDDA000000002E
:1037300070B506460C460025224631460948FEF77C
:1037400049FBC5B2B5F5806F04DA0748007808B9BF
:10375000FEF79AFBA54203DA611B04A000F018F8FB
:10376000284670BD480A002056000020554152549A
:1037700032B7A2CBCDBBBAB3E5C7F8D2E7B3F62CCC
:10378000BBB9D2AA2564B8F6D7D6BDDA00000000CE
:103790000FB4054B10B503A9044A029800F04EF986
:1037A00010BC5DF814FB00007D4700088400002079
:1037B0000FB4084B10B504A902AA039800F03EF913
:1037C000044602A9002000F0D0FC204610BC5DF8A1
:1037D00014FB00006B41000837B514460846064B41
:1037E0006A46214600F02AF904466946002000F0A6
:1037F000BCFC20463EBD00006B41000830B528B13E
:10380000144C031F002021680A4605E0084630BD1D
:103810009A4203D810465268002AF9D1002800D0F5
:1038200041680BD00468A3EB0005A54204D11B68D6
:103830001C440346046002E0436000E023603AB1A8
:103840001C68D51AA54203D115682C441C60526827
:103850005A6030BD880000202DE9F04782460F4CA9
:1038600010480D4E0E4F001B4FF0000820F00705CA
:103870004FF0010900221146504600F0D5FF002804
:1038800002D1306810B10020BDE8F0873C60C4E987
:103890000058C6F80090EDE78C000020641200206C
:1038A00088000020601A002002E008C8121F08C12A
:1038B000002AFAD170477047002001E001C1121FB1
:1038C000002AFBD1704700002DE9FF5FDDE90220EF
:1038D000010DDDF838B0024318D044F61050A1F2C3
:1038E000FF3141430D140F98012820D0A5EB0B00A8
:1038F000401C5FEA000A4FF00004474EDFF81C91BD
:10390000A046504616D5CAF1000728E00F980124BA
:1039100043A2012808D0002100980F9BC0E9002194
:10392000C0E90243BDE8FF9F6FEA0B01F4E7CBF16A
:103930000000DEE7074612E0F80707D022463346CC
:1039400040464946FCF7C7FE804689462246334634
:1039500010461946FCF7BFFE04460E467F10002FA6
:10396000EAD1DDE90201BAF1000F42464B4602DA24
:10397000FCF7B1FE01E0FCF720FF04460E460022F2
:10398000284BFCF7FDFF03D84FF0FF30014607E05E
:103990000022254B20463146FCF7F6FDFDF7BEF927
:1039A000102409E0002C0ADB0A220023FDF732F87C
:1039B000019B30321A55641E50EA0102F2D1641C98
:1039C000019AC4F1110314440F9A012A03D0012271
:1039D00008430DD10AE0084304D000204FF0110B3A
:1039E0000F9080E7A3EB0B056D1E0DE05B4504DD3A
:1039F0004FF0000205F1010504E003DA4FF0000288
:103A0000A5F10105002AECD000980F99C0E9023118
:103A1000C0E9004586E70000000024400000F03FB8
:103A2000300000000000F0430000E03F30380A287A
:103A300001D2012070470020704700002DE9FF4FA0
:103A400095B09B468946064600250FE2252877D18A
:103A500000242746F84A0121059400E0044316F8A3
:103A6000013F203B01FA03F01042F7D130782A28B9
:103A700011D06FF02F033078A0F13002092A16D848
:103A8000059A44F0020402EB820203EB4202104466
:103A9000761C0590EFE759F8042B0592002A03DA0B
:103AA000504244F40054059044F00204761C3078EF
:103AB0002E2816D116F8010F44F004042A280DD040
:103AC0006FF02F023078A0F13003092B09D807EBF3
:103AD000870302EB4303C718761CF3E759F8047B0E
:103AE000761C30786C280FD006DC4C2817D068285C
:103AF0000DD06A2814D104E0742810D07A280FD190
:103B00000DE044F400140AE044F4801401E044F4AD
:103B100040147278824202D104F58014761C761C1F
:103B2000307866280BD013DC582877D009DC0028C1
:103B300075D04528F6D04628F4D047281AD19DE103
:103B400018E0632835D0642879D0652812D195E132
:103B5000702873D008DC6728F1D069286FD06E28F0
:103B60000DD06F2806D1B5E073282CD0752875D0FC
:103B7000782874D05A46179990476D1C75E1C4F3A4
:103B80000250022809D003280DD0D9F800100428CB
:103B90000DD00D6009F1040967E1D9F80010EA17AA
:103BA000C1E90052F6E7D9F800100D80F2E70D7078
:103BB000F0E719F8041B8DF8001000208DF80100C3
:103BC000EA46012003E059F804AB4FF0FF306107EB
:103BD0004FF0000102D40DE008F101018846B9421E
:103BE0000FDA8045F8DB1AF808100029F4D108E054
:103BF00008F1010188468142FADB1AF80810002911
:103C0000F6D105985B46A0EB080721463846179A7F
:103C100000F094FA284400EB080507E04DE029E1A4
:103C20000DE01AF8010B5A4617999047B8F10108B0
:103C3000F7D25B4621463846179A13E142E00A2242
:103C40000092C4F302524FF0000A022A08D059F839
:103C500004CB032A4FEAEC710AD00DE029E02AE0F8
:103C600009F1070121F00702F2E802C1914609E0DB
:103C70000FFA8CFC4FEAEC71042A03D14FFA8CFC4A
:103C80004FEAEC71002907DA0A460021DCF1000C4A
:103C900061EB02012D2202E0220504D52B228DF8D2
:103CA0000420012203E0E20701D02022F7E790463A
:103CB00059E00A2102E010220DE010214FF0000A25
:103CC00000910BE010224FF0000A44F00404082792
:103CD000009203E008224FF0000A0092C4F302525F
:103CE000022A05D059F804CB0021032A08D009E0A4
:103CF00009F1070121F00702F2E802C1914605E04F
:103D00001FFA8CFC042A01D10CF0FF0C4FF00008C4
:103D1000220728D5702806D0009B83F0100353EAB1
:103D20000A0305D00EE040228DF80420012208E0AD
:103D30005CEA010206D030228DF804208DF80500DF
:103D400002229046009B83F0080353EA0A030AD13B
:103D50005CEA010201D1620705D530228DF804200A
:103D60004FF001087F1E582804D034A003900EA8FD
:103D700002900DE036A0F9E753466046009AFCF742
:103D800049FE84460398825C0298401E02900270AD
:103D90005CEA0100F0D1029806A9081A00F1200A95
:103DA000600702D524F4803400E00127574502DD86
:103DB000A7EB0A0000E0002000EB0A010090059844
:103DC0004144401A0590E00306D45B462146179A09
:103DD000059800F0B3F90544002706E001A85A460B
:103DE000C05D179990476D1C7F1C4745F6DBE003CB
:103DF0000CD55B462146179A059800F09FF90544BB
:103E000004E030205A46179990476D1C0099481ECF
:103E100000900029F5DC08E0029802995A460078E3
:103E2000491C0291179990476D1CBAF10001AAF143
:103E3000010AF1DC65E1000009280100303132336C
:103E400034353637383961626364656600000000D6
:103E500030313233343536373839414243444546C0
:103E60000000000000F058F90544761C3078002866
:103E70007FF4ECAD19B02846BDE8F08F620700D49E
:103E8000062709F1070222F0070CFCE80223E146AD
:103E900003F000485FEA080C02D00FF2702C0DE02E
:103EA0005FEA045C02D50FF2682C07E05FEAC47C8D
:103EB00002D00FF2602C01E0AFF2700C4FF0FF382F
:103EC00023F00043CDF850C065280CD006DC45280F
:103ED00009D046281DD047283DD13DE0662818D09E
:103EE00067287ED138E00021112F01DB112000E08E
:103EF000781CCDE9000106A90EA8FFF7E5FCDDE975
:103F00000F010E9A03910021009207F1010A04911A
:103F10004DE04FF000400097CDE9011006A90EA832
:103F2000FFF7D2FCDDE90F0203920E9B11990022EC
:103F3000DDF80CA00093049211B9791C00EB010A82
:103F4000B7EB0A0004D4C0F1FF3007F1010A049076
:103F5000AAEB0700019044E0012F00DA01270021BD
:103F6000112F01DD112000E03846CDE9000106A93E
:103F70000EA8FFF7A9FCDDE90F010E9A03910021BD
:103F800004910092BA4621070CD40399514500DAF6
:103F90008A46BAF1010F05DD009AAAF10101515CD0
:103FA000302908D0B84202DA10F1040F06DA0121F4
:103FB000CDE9011015E0AAF10101E9E7002805DCCF
:103FC000049901440491AAEB000102E0411C51450F
:103FD00000DD8A460499401A401C01904FF00040D1
:103FE0000290200704D40198504501DBCDF80480ED
:103FF00000208DF84F0002980DF14F07B0F1004FEF
:1040000025D02B200E9002984FF0020800280CDAE1
:10401000404202902D200E9007E00A210298FCF702
:10402000E3FC3031029007F8011DB8F10001A8F15E
:104030000108F2DC02980028EFD1791E0E98087072
:10404000307800F0200040F0450007F8020D12A87B
:10405000C01B00F107081498007800B1012000EBA4
:104060000A01019801EBE07105984144401A401E95
:104070000590E00306D45B462146179A059800F0A8
:104080005DF805441498007818B15A46179990477E
:104090006D1CE00324D55B462146179A059800F075
:1040A0004DF805441CE00498002807DBDDE9030116
:1040B000884203DD0098405C179901E01799302091
:1040C0005A469047049805F10105401C0490019858
:1040D000401E019004D12E205A46179990476D1C1E
:1040E000BAF10001AAF1010ADDDC05E017F8010BC5
:1040F0005A46179990476D1CB8F10001A8F10108C4
:10410000F4DC5B462146179A0598ABE62D000000CB
:104110002B000000200000002DE9F041044600259E
:104120001E461746880404D405E039462020B047CF
:104130006D1C641EF9D52846BDE8F0812DE9F041DB
:10414000044600251E469046C80301D5302700E0EE
:104150002027880404D505E041463846B0476D1C49
:10416000641EF9D52846BDE8F0810A68531C0B602F
:104170001070704770B505460C46002614B10DB19D
:10418000A54201D1002070BDAE6826B9AC60646064
:104190000020206007E0706828B12146706801F0B7
:1041A000D7FAA86844600120EDE72DE9F0470546FD
:1041B0000E4614461F46DDF820904FF00008C24618
:1041C0001DB116B10CB1A54202D10020BDE8F087A7
:1041D000B9F1000F07D0304600F0FAF98046E068E8
:1041E00040F4007A0CE03946304600F0B1F98046E0
:1041F000B8F1000F01D10020E8E7E06820F4007A70
:10420000A08900F4007020B9206A10B1206A796892
:104210008847C4F82080C4F80CA021462846FFF740
:10422000A9FFD3E7014609B1086808B90020704723
:1042300019B1D1E90120904201D30846F7E702E025
:104240008868401C886041B1D1E90120904204D2C5
:104250008A680868805C2028F2DDD1E9012090425C
:1042600002D18868401E88600846E0E7F8B5044639
:104270000D4616460020044B324629460090204643
:10428000FFF793FFF8BD0000200000202DE9F84360
:1042900006460F4614461D462046294600F02EF8D5
:1042A00080460020074B4246394600903046FFF7D3
:1042B0007CFF10B14046BDE8F883404600F076F838
:1042C0000020F8E720000020F8B505460E46144609
:1042D000204600F051F807460020074B3A46314689
:1042E00000902846FFF761FF08B13846F8BD384610
:1042F00000F05CF80020F9E72000002070B50546CA
:104300000E46134800F087F80446F4B10820E06038
:10431000C4E906560F4A104B28463146FCF730FBDD
:1043200003D86FF0004060610FE000220B4B28467D
:104330003146FCF70DFB03D84FF00040606104E00C
:1043400028463146FCF7D2FA6061204670BD000075
:10435000200000200000C0FFFFFFDF410000E0C19F
:1043600010B5044800F057F804460CB14020E06056
:10437000204610BD2000002070B505460A4800F018
:104380004AF804466CB11020E0600749284600F066
:10439000DFF82061206920B9204600F007F80020EE
:1043A00070BD2046FCE700002000002070B50446E8
:1043B000002522E02568A08900F4807020B9A0685B
:1043C00010B1A068FFF7F2FFA08900F4807028B94F
:1043D000206918B10A4A206951688847A08900F409
:1043E000007028B9206A18B1054A206A51688847C8
:1043F00003484168204688472C46002CDAD170BD1E
:104400002000002070B504460D46002229462046B3
:1044100000F0E0F970BD70B5044628202168884797
:1044200005461DB128212846FBF7BDFE284670BD74
:1044300010B5044600221146204600F06BF810BD6E
:104440002DE9F0478AB004460E46154698461C21D1
:1044500003A8FBF7A8FE002700202C49086048604D
:1044600004B106B932E00394049600200590284A6E
:1044700007CA07AB07C32648FFF7CDFF074607B9B2
:1044800024E003A801F038F98246FFF7CBFE81460D
:104490004946384600F0C6FC00B917E0B8F1000FF5
:1044A0000BD003A8FFF7BEFEDDE90410884203D25B
:1044B00005990398405C00B108E01DB10599039887
:1044C0000844286038460AB0BDE8F08717B138467E
:1044D000FFF76CFFC4B1019400200290DDE90410E5
:1044E000884202D20598029004E0049810B1049822
:1044F000401E02901DB1DDE9010108442860034817
:10450000DDE9011206C000BF0020DCE71800002032
:10451000200000202DE9F04104460D46164614B94E
:104520000020BDE8F0812046FBF748FE471C3346DB
:104530002A4639462046FFF783FFF2E710B50446C6
:10454000024A0121204600F00BFD10BD2000002092
:104550002DE9F04104460D460026002714B900203D
:10456000BDE8F0812046FBF729FE461C304629684D
:10457000884707460FB90020F2E732462146384601
:10458000FBF7F8FD3846EBE770B504460D4604B17D
:104590000DB9012070BDAC4201D10020FAE705E061
:1045A000207808B90020F5E7641C6D1C2078FBF723
:1045B000DBFD06462878FBF7D7FD8642F0D0207851
:1045C000FBF7D2FD06462878FBF7CEFD301AE1E76F
:1045D000704700002DE9FC5F04460D4616461F4655
:1045E00027F00043B24625F000405246CDE9004096
:1045F00020460199FCF7C4F903D225F0004120467A
:1046000002E027F0004130468046894600220D4BEB
:1046100040464946FCF75FF882468B4632463B46A9
:1046200020462946FCF751F821F0004152465B46EE
:10463000CDE90001FCF78CF902D80120BDE8FC9F10
:104640000020FBE70000B03C0FB410B59AB0002486
:10465000642101A8FBF7A7FD1C9818B91AB010BC7B
:104660005DF814FB1DA8009001A8009A1C99FFF7A3
:10467000B3F80020009001A8FBF7A0FDC4B204B974
:10468000ECE7214601A8FFF753F800BFE6E72DE964
:10469000F04104460D46002600270CB1206810B9F1
:1046A0000020BDE8F081606828B1D4E9011088429B
:1046B00001D30020F5E7B5F1004F01D30020F0E76A
:1046C000A068401C05446068A84203D3A168206824
:1046D0000844E6E7206908B10020E2E7B5F1804F21
:1046E00007D3B5F1004F02D26FF0004702E000207F
:1046F000D7E76F00206A60B13946226A2068904788
:104700000646DEB9E16920688847002060602060C5
:10471000C7E73846A1698847064636B9E169206887
:104720008847002060602060BBE7A068421C3046DC
:104730002168FBF71FFDE1692068884767602660F4
:10474000A0683044ADE7000030B502460B460A4889
:104750004578446800210AE014F83100904205D100
:1047600014F83100984201D148B230BD491CA94229
:10477000F2DB4FF0FF30F8E72C00002070B5044664
:104780000D46E0B2FEF714FB204670BD38B54FF67B
:10479000FF74002000900D4800882146884202D016
:1047A0000A48008838BD6A460221002000F032FF26
:1047B00048B19DF800404FF6FF7000EA04249DF8D0
:1047C0000140024804802046ECE70000520000202F
:1047D0002E2070472DE9F04105460E46174600246D
:1047E00005B116B90020BDE8F081AC685FB100E00A
:1047F00024688CB1206A78B13046216AFBF7E5FC69
:104800000028F5D108E000E024682CB13046216A88
:10481000FFF7BAFE0028F7D10CB1206A08B90020D2
:10482000E1E72046DFE700002DE9F0410B3020F002
:104830000706104D19E02068B04215D3B0420AD9DE
:10484000871B201DD4F80480FBF794FCA019C0E955
:104850000078286004E060682860201DFBF78AFC6F
:10486000201D2660BDE8F081251D2C68002CE2D1BA
:104870000020F7E78800002010B5FDF7F5FB10BD1C
:10488000FDF71AFCFDF7CCFC04A0FEF781FF03E066
:10489000FDF758FEFDF736FEFAE70000496E697431
:1048A0002053797374656D20686173206265656E4D
:1048B0002066696E69736865642E0D0A0000000049
:1048C00001480068704700003C0000202DE9F041DD
:1048D00080460C4600250027E068B0F57A7F02D3B9
:1048E0000020BDE8F081E068401CE060A16820681D
:1048F000405C5B2800D05FE0A068401CA0602046C0
:10490000FFF790FC4CB1D4E90110884205D2A168B0
:104910002068405C5D2800D13FE01CB1D4E9011063
:10492000884203D3A068401EA06045E0A068401EF6
:10493000A06000BF04F11000FFF76DFD064606B948
:104940003AE015B93546374602E03E6077603746B3
:10495000A068401CA0602046FFF764FC2146384652
:1049600000F060FA00B927E02046FFF75BFC44B195
:10497000D4E90110884204D2A1682068405C2C2848
:10498000D8D044B1D4E90110884204D2A16820688B
:10499000405C5D2800D00FE000BFE068401EE06092
:1049A00005B16F602020C8F80C00C8F80850A06856
:1049B000401CA060012094E715B12846FFF7F6FCE3
:1049C00000208EE702460023002100BF23E0505C58
:1049D000302806DB505C392803DC505C3038034457
:1049E00015E0505C412806DB505C462803DC505C37
:1049F000373803440BE0505C612806DB505C6628C6
:104A000003DC505C5738034401E000207047032961
:104A100000D21B01491C0429D9D31846F6E700002F
:104A20002DE9F04391B080460C4600BF0020109065
:104A3000FFF7CEFE814600250CB1206818B9002092
:104A400011B0BDE8F08300253CE0A168206808446F
:104A5000405D342820D00ADCA0F12B0009282ED29A
:104A6000DFE800F0202D212A2D161718190038280C
:104A700016D006DC352810D036280FD037281ED1A6
:104A80000DE039280DD045280FD0652817D10BE04F
:104A900000BF00BF00BF00BF00BF00BF00BF00BF1E
:104AA00000BF00BF00BF00BF00BFA168206808446E
:104AB000405D0DF8050003E00DF8059000E00AE008
:104AC00000BF6D1C3F2D05D224B1A0682844616849
:104AD0008842BAD300BF00200DF8050010A968462F
:104AE00000F028FE06460F4668461099884201D11C
:104AF0000020A5E7C8E90667144A154B3046394639
:104B0000FBF73EFF04D86FF00040C8F8140011E036
:104B10000022104B30463946FBF71AFF04D84FF0FD
:104B20000040C8F8140005E030463946FBF7DEFEC9
:104B3000C8F814000820C8F80C00A0686A4610994C
:104B4000891A0844A06001207AE700000000C0FF35
:104B5000FFFFDF410000E0C12DE9F04180460C4637
:104B600000260025E068B0F57A7F02D30020BDE87A
:104B7000F081E068401CE06044B1D4E90110884253
:104B800004D2A1682068405C7B2800D07DE0A0684A
:104B9000401CA0602046FFF745FB4CB1D4E9011052
:104BA000884205D2A1682068405C7D2800D15DE084
:104BB0001CB1D4E90110884203D3A068401EA06054
:104BC00063E0A068401EA06000BF04F11000FFF782
:104BD00022FC074607B958E016B93E463D4602E0BA
:104BE0002F607D603D46A068401CA0602046FFF716
:104BF00019FB2146284600F04EF800B945E0204652
:104C0000FFF710FB286928620020286144B1D4E92D
:104C10000110884204D2A1682068405C3A2800D084
:104C200033E0A068401CA0602046FFF7FBFA214655
:104C3000284600F0F7F800B927E02046FFF7F2FA1F
:104C400044B1D4E90110884204D2A1682068405CD4
:104C50002C28BAD044B1D4E90110884204D2A1680A
:104C60002068405C7D2800D00FE000BFE068401E57
:104C7000E06006B175604020C8F80C00C8F8086014
:104C8000A068401CA060012071E716B13046FFF714
:104C90008DFB00206BE72DE9F84F80460C46A1689C
:104CA00020680844461CA16820680844451C002070
:104CB00000900027A1682068405C222800D0A6E070
:104CC0004FF0000AD1460DE028785C2809D1681C15
:104CD0002168401A6168884200D398E009F101090F
:104CE0006D1C6D1C2068281A6168884202D22878E1
:104CF0002228E9D12068281A6168884202D22878DF
:104D0000222800D083E0A16820680844281AA0EB7C
:104D1000090A0AF1010021698847074607B976E0C8
:104D2000009761E030785C2807D016F8010B0099F5
:104D300008700098401C009056E04FF00209A81B34
:104D4000012800DA63E07078662819D008DC222890
:104D500032D02F2832D05C282FD0622840D108E0F2
:104D60006E2814D0722819D074281ED0752837D117
:104D70002BE00820009908700098401C009030E05B
:104D80000C20009908700098401C009029E00A202F
:104D9000009908700098401C009022E00D200099B6
:104DA00008700098401C00901BE0092000990870D2
:104DB0000098401C009014E000BF00BF707800997C
:104DC00008700098401C00900BE06A462946304667
:104DD00000F0D3FC8146B9F1000F00D117E000E0EC
:104DE00015E000BF4E4400BFAE429BD300200099A7
:104DF00008701020C8F80C00C8F810702068281A35
:104E0000A060A068401CA0600120BDE8F88F17B129
:104E100038466169884716B12068301AA0600020C2
:104E2000F3E7000070B505460C460CB1206808B9E0
:104E3000002070BD9CB1A068001D616888420ED83A
:104E4000A2682168881804223FA1FBF7D5F930B980
:104E50000420E860A068001DA0600120E9E79CB183
:104E6000A068401D616888420ED8A2682168881831
:104E7000052237A1FBF7C0F930B90120E860A0682E
:104E8000401DA0600120D4E7ACB1A068001D61689E
:104E9000884210D8A2682168881804222EA1FBF746
:104EA000ABF940B90220E86001206861A068001DEC
:104EB000A0600120BDE76CB1D4E90110884209D29D
:104EC000A1682068405C222804D121462846FFF7CB
:104ED000E2FEAEE7BCB1D4E90110884213D2A1686A
:104EE0002068405C2D2809D0A1682068405C3028EB
:104EF00009DBA1682068405C392804DC214628468B
:104F0000FFF78EFD95E76CB1D4E90110884209D214
:104F1000A1682068405C5B2804D121462846FFF741
:104F2000D5FC86E76CB1D4E90110884209D2A168AA
:104F30002068405C7B2804D121462846FFF70CFE00
:104F400077E7002075E700006E756C6C00000000CC
:104F500066616C7365000000747275650000000086
:104F6000F0B589B007460E46144600252421684650
:104F7000FBF719F94FF480702168884700904FF4CF
:104F800080700190059694E8070006AB07C300986F
:104F900000B933E06946384600F0BAFA00B92DE0AE
:104FA000684600F0D8FBA06850B1029B591C0098DD
:104FB000A2689047054605B920E0002000901AE05D
:104FC000029A501C21688847054605B916E0DDE9BC
:104FD0000130401C834201D2019801E00298401C3C
:104FE000024628460099FBF7C5F80020029968544C
:104FF000009861688847284609B0F0BD009810B154
:1050000000986168884715B1284661688847002084
:10501000F2E72DE9F04107460C460025A846BE6898
:1050200014B90020BDE8F08101212046FFF72FFBD5
:1050300005460DB90020F5E75B202870A068401CEC
:10504000A060E068401CE06028E02146304600F0A7
:105050005FFA08B90020E5E7204600F07CFB3068E5
:10506000D8B1606908B1022000E00120804608F153
:1050700001012046FFF70BFB05460DB90020D1E7E3
:105080002C2005F8010B606910B1202005F8010BF8
:1050900000202870A0684044A0603668002ED4D15B
:1050A00002212046FFF7F3FA05460DB90020B9E7C3
:1050B0005D2005F8010B00202870E068401EE060CC
:1050C0000120AFE72DE9F04F8BB081460F464FF03E
:1050D000000AD9E90645D04600261C2104A8FBF7A2
:1050E00062F8FFF775FB834600200290039017B922
:1050F0000BB0BDE8F08FCDE90045DDE900210AB134
:10510000012200E0002241EA020020F00041394A79
:10511000511AC90F61B9CDE9004551000198B1EBB1
:10512000400F03D1009808B9012000E0002028B109
:1051300031A104A8FEF73CFB80462EE0D9F814000C
:10514000FBF7AFFB22462B46CDE90001FBF700FC45
:1051500007D12BA104A8D9F81420FEF729FB80461B
:105160001BE022462B4627A104A8FEF721FB804620
:1051700002AA26A104A8FBF74FF8012806D122466F
:105180002B46DDE90201FFF725FA30B922462B460E
:105190001FA104A8FEF70CFB8046B8F1000F02DB4C
:1051A000B8F1190F01DD0020A2E708F1010138462E
:1051B000FFF76DFA8246BAF1000F01D1002097E7A0
:1051C00000260DE004A8805D584503D12E200AF882
:1051D000060004E004A8805D0AF8060000BF761C03
:1051E0004645EFD300200AF80600B8684044B8608E
:1051F00001207DE70000F07F6E756C6C0000000000
:105200002564000025312E3135670000256C6700CC
:1052100025312E31376700002DE9F04781460C46D5
:1052200000250026D9F8087014B90020BDE8F087E1
:10523000606908B1022000E001200646711C20468A
:10524000FFF725FA05460DB90020EFE77B2005F8AA
:10525000010BE068401CE060606910B10A2005F8AD
:10526000010BA0683044A06069E06069B8B12046D5
:10527000E168FFF70CFA05460DB90020D6E74FF0BC
:10528000000804E0092005F8010B08F10108E068B6
:105290004045F7D8D4E902010844A06000BF214688
:1052A000386A00F07BF808B90020BFE7204600F01C
:1052B00052FA606908B1022000E00120064631463A
:1052C0002046FFF7E4F905460DB90020AEE73A2085
:1052D00005F8010B606910B1092005F8010BA06801
:1052E0003044A0602146384600F012F908B9002089
:1052F0009CE7204600F02FFA606908B1012000E029
:105300000020396809B1012100E000214618711C14
:105310002046FFF7BCF905460DB9002086E738683E
:1053200010B12C2005F8010B606910B10A2005F8B6
:10533000010B00202870A0683044A0603F68002F57
:1053400093D1606910B1E068401C00E00220014682
:105350002046FFF79CF905460DB9002066E7606915
:1053600050B1002003E0092105F8011B401CE16851
:10537000491E8142F7D800BF7D2005F8010B0020AF
:105380002870E068401EE06001204FE770B50446D9
:105390000D462946206900F001F870BD2DE9F0475F
:1053A00007468A46002400260025A046A146BAF1F9
:1053B000000F02D10020BDE8F0876FB903215046ED
:1053C000FFF765F906460EB90020F4E74DA1304617
:1053D000FAF709FF0120EEE73C4622E020780C288E
:1053E00011D006DC08280DD009280FD00A2810D1CA
:1053F0000AE00D2809D0222802D05C2809D100E05B
:1054000000BF00BF00BF00BF00BF00BF09F101091E
:1054100005E02078202801DA09F1050900BF00BF66
:10542000641C20780028D9D1E01B00EB090808F1A2
:1054300003015046FFF72BF906460EB90020BAE7E4
:10544000B9F1000F0FD12220307042463946701C4E
:10545000FAF790FE222108F1010031540021401C8E
:1054600031540120A7E722203070751C3C463DE0F6
:1054700020781F2808DD2078222805D020785C2895
:1054800002D0207828702FE05C2005F8010B2078EE
:105490000C2815D006DC08280FD0092819D00A28B6
:1054A0001AD110E00D2811D0222803D05C2813D186
:1054B000287018E02220287015E06220287012E081
:1054C000662028700FE06E2028700CE07220287093
:1054D00009E07420287006E022780BA12846FEF728
:1054E00067F92D1D00BF00BF641C6D1C20780028CB
:1054F000BED1222108F1010031540021401C315459
:10550000012058E722220000752530347800000081
:105510002DE9F04104460E46002504B116B90020DD
:10552000BDE8F081207B102857D008DC01281BD073
:10553000022827D0042809D008285DD130E020288F
:1055400050D0402853D0802856D12EE00521304637
:10555000FFF79DF805460DB90020E1E727A1284691
:10556000FAF741FE0120DBE706213046FFF78FF80E
:1055700005460DB90020D3E722A12846FAF733FEED
:105580000120CDE705213046FFF781F805460DB92A
:105590000020C5E71DA12846FAF725FE0120BFE738
:1055A00031462046FFF78EFDBAE70027206908B98B
:1055B0000020B5E72069FAF701FE471C394630465E
:1055C000FFF765F805460DB90020A9E73A462846D9
:1055D0002169FAF7CFFD0120A2E731462046FFF707
:1055E000D5FE9DE731462046FFF713FD98E731468B
:1055F0002046FFF711FE93E7002091E76E756C6C73
:105600000000000066616C736500000074727565CF
:10561000000000002DE9FC4106460D46174600201B
:10562000019019A0006800908DF801608DF802507B
:105630000220FBF7E5FF0C20FCF718FB032168466E
:10564000FEF746F80C20FCF711FB032101A8FDF73B
:1056500069FB804600240AE001A8005D1DF80410E3
:10566000884202D00020BDE8FC81601CC4B2032C3B
:10567000F2DB29463846FDF755FBA84201D101204F
:10568000F1E70020EFE70000C10001002DE9F0473D
:1056900004008A4616D054F8047CD4F800903E1FCB
:1056A000564500D956462046FEF7A8F805468846D6
:1056B000324621465046FFF7B7F840B1C0F8009097
:1056C000BDE8F087BDE8F0470846FEF7C5B844E9F5
:1056D000017955B129686A18211F8A4202D9611BD4
:1056E000091F2960C5F80480EAE7024AC2F8008071
:1056F000E6E700008800002010B504461CB12068D1
:1057000008B1A06808B1002010BD7CB1A068001DE0
:10571000616888420AD2A26821688818032204A11D
:10572000FAF76AFD10B9A068C01CA0602046EBE73C
:10573000EFBBBF0000B583B00A460021CDE90011E0
:1057400001466846FBF717FADDE9000103B000BD2A
:1057500001604860704770B5044600250CB12068B0
:1057600000B970BDA168206845182846FAF726FDE3
:10577000A1680844A06000BFF3E72DE9FF5F804601
:105780008946154600240026C24600200390834621
:1057900002900190A9EB0A00062800DA81E00AF1E4
:1057A0000200FFF70FF90646B6F55C4F03D3B6F5D6
:1057B000604F00D275E0B6F5584F29D3B6F55C4F6F
:1057C00026D20AF10607002000900C200290A9EBD7
:1057D0000700062800DA64E038785C2802D178787F
:1057E000752800D05DE0B81CFFF7ECF80090009839
:1057F000B0F55C4F03D30098B0F5604F00D350E094
:10580000C6F30901009861F39F2000F5803402E09F
:10581000062002903446802C02D20120039018E02A
:10582000B4F5006F04D202200390C020019010E074
:10583000B4F5803F04D203200390E020019008E0FB
:10584000B4F5881F04D204200390F020019000E0FA
:1058500027E00398401E00F0FF0B0BE004F0BF00B0
:1058600040F08000296801F80B00A409ABF10100A9
:1058700000F0FF0BBBF1000FF0DC0398012804DD02
:10588000019820432968087003E004F07F0029682C
:1058900008702968039808442860029804B0BDE89D
:1058A000F09F0020FAE7DDDDDDDDDCBBBBDDDDDD0B
:1058B000DDDDDDDDDDDD988888888888888877777C
:1058C00077777788888885555556666666666666F2
:1058D0006666666888888333333222222222222237
:1058E00022222228888D00007B226D6574686F64F7
:1058F000223A227468696E672E73657276696365F1
:105900002E70726F70657274792E736574222C22FA
:105910006964223A223139323434393435222C2226
:10592000706172616D73223A7B224144435F7065FE
:1059300072696F645F53223A337D2C2276657273ED
:10594000696F6E223A22312E302E30227D00000007
:10595000705900080000002090000000A8380008DE
:10596000005A000890000020D0210000B83800083C
:105970000000000000000000000000000000000027
:105980000000000001000000000000000000000016
:1059900059380008FD3700088D5600080000000047
:1059A00000000000000000000000000000000000F7
:1059B00000000000000000000000000000000000E7
:1059C00000000000000000000000000102030401CC
:1059D00002030406070809020406080000A24A049C
:1059E000000000000000000001020304060708098F
:1059F00000000000000000000000000000000000A7
:0400000508000145A9
:00000001FF
