:020000040800F2
:10000000201200204501000809190008C915000840
:1000100005190008E90800087D2800080000000014
:10002000000000000000000000000000DD1F0008CC
:100030007311000800000000CF1900080522000815
:100040005F0100085F0100085F0100085F01000810
:100050005F0100085F0100085F0100085F01000800
:100060005F0100085F010008211200085F0100081D
:100070005F0100085F0100085F0100085F010008E0
:100080005F0100085F0100085F0100085F010008D0
:100090005F0100085F0100085F0100085F010008C0
:1000A0005F0100085F0100085F0100085F010008B0
:1000B0006D220008B92200085F0100085F010008F6
:1000C0005F0100085F0100085F0100085F01000890
:1000D0005F010008492400085F0100085F01000873
:1000E0005F0100085F0100085F0100085F01000870
:1000F0005F0100085F0100085F0100085F01000860
:100100005F0100085F010008E12200085F010008AC
:100110005F0100085F0100085F0100085F0100083F
:100120005F0100085F010008AD0E00085F010008D4
:10013000DFF80CD000F0F0FA00480047A5320008C4
:10014000201200200648804706480047FEE7FEE7E9
:10015000FEE7FEE7FEE7FEE7FEE7FEE7FEE7FEE777
:100160000D2200083101000840EA01039B0703D07B
:1001700009E008C9121F08C0042AFAD203E011F8E6
:10018000013B00F8013B521EF9D27047D2B201E0A8
:1001900000F8012B491EFBD270470022F6E710B58C
:1001A00013460A4604461946FFF7F0FF204610BDE5
:1001B0002DE9FE4F804681EA0300C00F0C460090F7
:1001C00021F0004123F00045B8EB0200A94105D21F
:1001D0004046214690461C460B46024623F000400E
:1001E000104347D0270DC7F30A00C3F30A5102900A
:1001F000401A019040286BDAC3F3130040F4801BCF
:100200000098924620B10023D2EB030A63EB0B0B5C
:1002100001985946C0F14002504600F0D6F9064612
:100220000D4650465946019A00F0EEF910EB0800D1
:100230006141002487EA115284EAE7731A4340D0EF
:10024000009A62B3019A012A4FEA075215DC001B9B
:1002500061EB02014FF0004202EA0752CDE9004291
:10026000001C41F5801132462B4600F0EEF903B038
:10027000BDE8F08F40462146F9E7001B61EB020123
:10028000001C41F5801300185B412018A2F50017EF
:1002900047EB030140EAD570B6196D4111E06D08D6
:1002A0004FEA360645EAC0754FEA0752001B61EB7C
:1002B0000201001C41F5801149084FEA3000001985
:1002C000514132462B4603B0BDE8F04F00F0AEB9C5
:1002D0000098012240000023D0EB020263EBE073A0
:1002E000009821464FEAE074B8EB000061EB04018E
:1002F000E9E783F000435BE781F0004158E72DE92F
:10030000FE4F81EA030404F0004421F00041009410
:100310004FF0000B23F0004350EA01045ED052EA94
:1003200003045BD0C3F30A54C1F30A552C44A4F26E
:10033000F3340194A0FB0254C1F3130141F4801182
:10034000C3F3130343F4801301FB024400FB034E89
:10035000840A970A44EA815447EA8357A4FB076852
:1003600002958D0A05FB07854FEA932C04FB0C547C
:100370002705029D4FEA065847EA1637B5EB0805F0
:100380006EEB070C870E920E47EA811742EA831242
:10039000A7FB0201B6EB0B0164EB00042B0D43EA53
:1003A0000C335E1844EB1C50DA465146E7FB020161
:1003B000C5F313044FEA0B3343EA14534FEA0432F4
:1003C000019C43EA0603A4F10C040294009CCDE9CD
:1003D00000B400F03AF903B0BDE8F08F0020014608
:1003E000F9E72DE9F04D81EA030404F0004B21F018
:1003F000004514464FF0000A23F0004150EA050280
:1004000020D054EA01021DD0C5F30A570246C5F3B5
:100410001303C1F31300C1F30A5640F4801543F4EB
:100420008013A7EB0608101BD64608F2FD3873EBC5
:10043000050002D308F1010801E092185B41B8F110
:10044000000F03DA00200146BDE8F08D00204FF4D4
:100450008011064684460EE0171B73EB050705D393
:10046000121B63EB050306434CEA010C49084FEAF3
:10047000300092185B4150EA0107EDD152EA0300C7
:1004800012D082EA040083EA0501084305D0101B5C
:10049000AB4106D20122002306E000224FF00043C8
:1004A00002E06FF0010253101AEB06004CEB08510A
:1004B00010EB0A0041EB0B01BDE8F04D00F0B6B8BF
:1004C0000EB540F2334102910021CDE900110A46F8
:1004D0000B4600F0BAF803B000BDC1F30A5210B5E4
:1004E000C1F3130140F2FF3341F480119A4201DA63
:1004F000002010BD40F233439A42A2F2334203DCA3
:10050000524200F071F810BD904010BD30B5041E8D
:1005100071F1000404DB4FF00044404264EB010140
:10052000141E73F1000405DB1C464FF000435242D9
:1005300063EB0403994208BF904230BD30B50B46CF
:10054000014600202022012409E021FA02F59D4203
:1005500005D303FA02F5491B04FA02F52844151ED7
:10056000A2F10102F1DC30BD2DE9F05F054600206B
:1005700092469B4688460646814640241BE0284614
:1005800041464746224600F02FF853465A46C01AC5
:10059000914110D311461846224600F016F82D1A44
:1005A00067EB01084F4622460120002100F00DF8BC
:1005B00017EB00094E41201EA4F10104DFDC484680
:1005C00031462A464346BDE8F09F202A04DB203A04
:1005D00000FA02F1002070479140C2F1200320FA96
:1005E00003F3194390407047202A04DB203A21FA94
:1005F00002F00021704721FA02F3D040C2F120023C
:100600009140084319467047202A06DBCB17203A51
:1006100041FA02F043EAE07306E041FA02F3D04007
:10062000C2F12002914008431946704710B5141ECC
:1006300073F1000408DA401C41F1000192185B419B
:100640001A4301D120F0010010BD2DE9F04D924672
:100650009B4611B1B1FA81F202E0B0FA80F2203289
:100660009046FFF7B2FF04460F4640EA0A0041EA0F
:100670000B0153465A46084313D0114653EA010072
:1006800019D0C8F140025046FFF7AEFF05460E46AE
:10069000504659464246FFF798FF084305D00120CF
:1006A00004E020463946BDE8F08D0020054346EAC7
:1006B000E0762C4337430A986305E40AA0EB080070
:1006C0000022FD0A44EA47540A3002D500200146C0
:1006D000E9E7010510196941DDE90845001969419B
:1006E000BDE8F04DA2E7C1F30A52C1F3130140F295
:1006F000FF3341F480119A4202DA0020014670472C
:1007000040F233439A42A2F2334202DC5242FFF7F4
:100710006BBFFFF75ABF0000064C074D06E0E068CC
:1007200040F0010394E8070098471034AC42F6D338
:10073000FFF702FD683300088833000821B18268A2
:1007400042F00102826003E0826822F001028260CE
:10075000704721B1826842F48072826003E082684F
:1007600022F480728260704721B1826842F4801264
:10077000826003E0826822F4801282607047014642
:1007800000208A6802F004020AB1012000E0002083
:100790007047014600208A6802F008020AB1012071
:1007A00000E000207047000030B502460020002322
:1007B00050680F4C20400D790C6844EA0524204312
:1007C000506090680B4C2040D1E902542C434D7985
:1007D00044EA450420439060D06A20F470000C7C09
:1007E000641EE4B2234340EA0350D06230BD0000EF
:1007F000FFFEF0FFFDF7F1FFF0B504460D460020C7
:100800000021092D11DDE068A5F10A0606EB460777
:10081000072606FA07F18843A5F10A0606EB460605
:1008200003FA06F10843E0600CE0206905EB450798
:10083000072606FA07F1884305EB450603FA06F199
:1008400008432061072A0FDA606B561E06EB860705
:100850001F2606FA07F18843561E06EB860605FAA0
:1008600006F10843606322E00D2A0FDA206BD61FE1
:1008700006EB86071F2606FA07F18843D61F06EB0C
:10088000860605FA06F10843206310E0E06AA2F14B
:100890000D0606EB86071F2606FA07F18843A2F12C
:1008A0000D0606EB860605FA06F10843E062F0BD88
:1008B000816841F0080181607047816841F004015E
:1008C0008160704730B10749096841F40001054A69
:1008D000116005E00349096821F40001014A116033
:1008E000704700000824014000BFFEE738B5044609
:1008F0003D220021631C0020009003E033F9025BDD
:100900002944921E012AF9DC05D118788DF80000DF
:10091000BDF90000014488B200EB214101EB214107
:10092000C84300B20090BDF9000038BD0020014965
:1009300008707047210000200020014908707047AE
:100940002000002000B587B04FF4004001F02CF9E2
:100950000121480201F054F90121042001F050F96D
:100960000220ADF8180000208DF81B0006A92048D1
:1009700000F05EFD0020019001208DF808000020AD
:100980008DF809004FF4002003900020049001200E
:100990008DF8140001A91748FFF706FF072301226D
:1009A00010211448FFF728FF0120FFF78BFF0121DA
:1009B0001048FFF7CEFE01210E48FFF7D5FE0121BA
:1009C0000C48FFF7BBFE0B48FFF772FF00BF09485A
:1009D000FFF7DFFE0028FAD10648FFF76EFF00BFE1
:1009E0000448FFF7CCFE0028FAD107B000BD000094
:1009F000000801400024014000B58BB001210846E9
:100A000001F0DEF8114800F08BFA1148009011480F
:100A1000019000200290012003900020049080208B
:100A20000590400006908000079020200890C001AB
:100A3000099000200A906946044800F036FB012125
:100A4000024800F061FA0BB000BD0000080002404F
:100A50004C2401402E00002003B58DB0012102205E
:100A600001F0AEF81A4800F05BFA1A4802900D98AF
:100A700003900E980590102004900020069080208E
:100A80000790400008908000099020200A90000202
:100A90000B9000200C9002A90D4800F006FB3A20B4
:100AA0008DF8040002208DF8050001208DF8060065
:100AB0008DF8070001A800F035FF0122022104484B
:100AC00000F0EAFA0121024800F01EFA0FB000BD62
:100AD000300402400874004008B50121042001F0F0
:100AE0008FF80121202001F08BF84FF48070ADF8D1
:100AF000000003208DF8020010208DF803006946E5
:100B00000D4800F095FC00224FF480710A4800F077
:100B100023FD0420ADF8000003208DF80200102012
:100B20008DF803006946054800F082FC012204218B
:100B3000024800F011FD08BD00080140001401400A
:100B40001FB50121082001F05BF80121084601F0E2
:100B500057F84020ADF80C0003208DF80E0010204F
:100B60008DF80F0003A9224800F062FC002240210A
:100B70001F4800F0F1FC2020ADF80C0003208DF898
:100B80000E0010208DF80F0003A9194800F050FC4A
:100B900000222021164800F0DFFC1020ADF80C00E8
:100BA00048208DF80F0003A9114800F041FC0421F2
:100BB000012000F01DFC1020019001208DF80A009A
:100BC00000208DF8080008208DF8090001A800F029
:100BD00051FB0A208DF8000002208DF801008DF8ED
:100BE000020001208DF80300684600F09BFE1FBD47
:100BF000000C014070B50446012500201249087020
:100C00001248047004F001024021114800F0A4FCD5
:100C1000C4F3400220210E4800F09EFC02F062FB6B
:100C2000064600BF02F03AFB08B9012000E00020B0
:100C3000051E04D002F056FB801B6428F2D90DB9C2
:100C4000012070BD0020FCE73900002038000020A2
:100C5000000C014010B54FF4A06000F09BFE10BDE9
:100C600010B500F0DDFF4FF4803001F09BF801F08B
:100C7000F7F80446012C24D1102000F09FFB02203D
:100C800000F0AAFB002001F081F8002001F0BCF880
:100C9000A00201F0ADF84FF4E011200401F0C6F815
:100CA000012001F0BDF800BF392001F049F800280B
:100CB000FAD0022001F0C8F800BF01F05FF8082860
:100CC000FBD110BD7FB505460C460121084600F05A
:100CD00087FFADF80850ADF804400020ADF80A00D9
:100CE000ADF8060001A94FF0804001F04FFB012252
:100CF0001146900701F038FB1C208DF80000002001
:100D00008DF8010003208DF8020001208DF803000A
:100D1000684600F007FE0121880701F008FB7FBD4F
:100D20007FB505460C460121022000F059FFADF8C1
:100D30000850ADF804400020ADF80A00ADF80600F8
:100D400001A9104801F022FB20210E4801F015FBFB
:100D5000012211460B4801F007FB1D208DF8000011
:100D600003208DF8010000208DF8020001208DF88D
:100D70000300684600F0D6FD0121024801F0D7FAD1
:100D80007FBD0000000400407FB505460C460121F0
:100D9000082000F025FFADF80850ADF80440002011
:100DA000ADF80A00ADF8060001A90E4801F0EEFA10
:100DB000012211460B4801F0D7FA32208DF80000CD
:100DC00000208DF8010003208DF8020001208DF82D
:100DD0000300684600F0A6FD0121024801F0A7FAD1
:100DE0007FBD0000000C004010B586B00446012114
:100DF000880300F005FF0121042000F001FF4FF4FB
:100E00000070ADF8140018208DF8170003208DF83D
:100E1000160005A9224800F00BFB4FF48060ADF8E6
:100E2000140004208DF8170005A91D4800F000FBF0
:100E300001A801F04CFC01940020ADF80800ADF8C9
:100E40000A00ADF80C000C20ADF80E000020ADF843
:100E5000100001A9134801F0C5FB25208DF8000002
:100E600000208DF801008DF8020001208DF80300AC
:100E7000684600F057FD012240F22551094801F073
:100E80008CFB012240F22771064801F086FB01210C
:100E9000044801F03FFB00200349087006B010BD74
:100EA00000080140003801402C00002010B50B481C
:100EB00000F0DCF880B13A2000F01F0201219140DF
:100EC000074A430942F8231000BF064800F00EF815
:100ED000054803C8FFF7C0FD10BD00000002001068
:100EE00080E200E0000100103000002000F080519E
:100EF00011B10349086001E00249486070470000F1
:100F0000040402400000024021B1026842F00102E4
:100F1000026004E002684FF6FE731A4002607047F8
:100F200001684FF6FE7211400160002101604160CE
:100F30008160C1604B49884208D14A4908394968F3
:100F400041F00F01474A083A51608AE0454914319F
:100F5000884208D143490839496841F0F001414AC3
:100F6000083A51607DE03F492831884208D13D4927
:100F70000839496841F470613A4A083A516070E0B2
:100F800038493C31884208D136490839496841F42A
:100F90007041344A083A516063E032495031884226
:100FA00008D130490839496841F470212D4A083A7E
:100FB000516056E02B496431884208D129490839EB
:100FC000496841F47001274A083A516049E02549CF
:100FD0007831884208D123490839496841F0706165
:100FE000204A083A51603CE01F49884206D1011F5F
:100FF000096841F00F01021F116032E01A491431F3
:10100000884208D11849091F096841F0F001164AC1
:10101000121F116025E014492831884208D1124975
:10102000091F096841F470610F4A121F116018E02E
:101030000D493C31884208D10B49091F096841F428
:101040007041094A121F11600BE007495031884274
:1010500007D10549091F096841F47021024A121F8E
:101060001160704708000240080402400146002059
:10107000002201F0805313B1054B1A6801E0054BC3
:101080001A6802EA01030BB1012000E0002070475A
:1010900000040240000002401AB103680B430360E1
:1010A00002E003688B430360704710B500220268BA
:1010B00047F6F0739A430C6A8B6823430C69234309
:1010C0004C6923438C692343CC6923434C6A2343F3
:1010D0008C6A23431A430260CB6843600B688360C9
:1010E0004B68C36010BD30B50346002016E0B3F96D
:1010F00000509C68645D0C541C88641C24B21C80E5
:10110000B3F90040B3F90450AC4201DB00241C8069
:10111000441C20B2DC88641E24B2DC80B3F9064093
:10112000002C01DD9042E2DB30BD30B503460020EB
:1011300018E0B3F900509C6834F8154021F81040CD
:101140001C88641C24B21C80B3F90040B3F904501D
:10115000AC4201DB00241C80441C20B2DC88641EED
:1011600024B2DC80B3F90640002C01DD9042E0DBC4
:1011700030BD704710B5094B5A785968012009E015
:1011800001EBC003DB795B1E5BB201EBC004E371D2
:10119000431C58B29042F3DB10BD00001400002045
:1011A00001B504490098086000BF024800680028A3
:1011B000FBD108BD6800002070B5184C63786168E9
:1011C000002228E001EBC20494F90740002C20DC47
:1011D000104615E0114C2578841CA54209DB01EB73
:1011E000C005441C01EBC40426682E6064686C6072
:1011F00004E001EBC004002525606560441C60B27A
:101200009842E7DB5C1EE3B2044C6478641E034D35
:101210006C70541C62B29A42D4DB70BD1400002082
:1012200010B5102000F012F8012805D1102000F0B0
:1012300007F801200149087010BD000039000020A6
:101240000149086070470000140401400146002075
:101250000022074B1B6803EA0102054B14331B688D
:101260000B4013B10AB1012000E0002070470000DC
:1012700000040140002123498279002A3AD00A461D
:10128000126803689A430B461A600A1D12680368C5
:101290009A430B1D1A60027911440A6803681A43C5
:1012A0000A60184A0832126803689A43154B0833DB
:1012B0001A601A1D126803689A43124B0C331A60A5
:1012C0004279102A0ED11A1F126803681A430D4B77
:1012D00008331A601A1D126803681A43094B0C334D
:1012E0001A600DE00749427911440A6803681A43FD
:1012F0000A6005E0027911440A6803689A430A60AB
:10130000704700000004014070B50346002016E05D
:101310000C5CB3F902609D68AC555C88641C24B217
:101320005C80B3F90240B3F90450AC4201DB002405
:101330005C80441C20B2DC88641C24B2DC80B3F9DD
:101340000640B3F90450AC4201DA9042E0DB70BDD4
:1013500070B50346002018E031F81040B3F9026080
:101360009D6825F816405C88641C24B25C80B3F943
:101370000240B3F90450AC4201DB00245C80441C01
:1013800020B2DC88641C24B2DC80B3F90640B3F9D7
:101390000450AC4201DA9042DEDB70BD10B5012092
:1013A00004490870012240F22771034801F0F5F862
:1013B00010BD00002C0000200038014005490968DC
:1013C00021F01001034A11601146096801431160C0
:1013D000704700000020024001460020034A1068C8
:1013E00000F0380008431060704700000020024001
:1013F00030B500228B071C0F0F2303FA04F20B4BAE
:101400008C1053F824309343084C8D1044F8253049
:1014100023468C1053F824308C07240F00FA04F470
:101420002343024C8D1044F8253030BD08000140A4
:101430002DE9F0410246002500260020002300246B
:10144000002791F803C00CF00F0591F803C00CF0D1
:10145000100CBCF1000F03D091F802C04CEA050556
:1014600091F800C0BCF1000F31D0146800202BE0CF
:101470004FF0010C0CFA00F3B1F800C00CEA0306BF
:101480009E4220D183004FF00F0C0CFA03F7BC43AF
:1014900005FA03FC4CEA040491F803C0BCF1280FE0
:1014A00006D14FF0010C0CFA00FCC2F814C00AE09F
:1014B00091F803C0BCF1480F05D14FF0010C0CFAB4
:1014C00000FCC2F810C0401C0828D1D31460B1F849
:1014D00000C0BCF1FF0F34DD546800202EE000F1A5
:1014E000080C4FF0010808FA0CF3B1F800C00CEA40
:1014F00003069E4221D183004FF00F0C0CFA03F734
:10150000BC4305FA03FC4CEA040491F803C0BCF1A7
:10151000280F05D100F1080C08FA0CF8C2F8148065
:1015200091F803C0BCF1480F07D100F1080C4FF04F
:10153000010808FA0CF8C2F81080401C0828CED325
:101540005460BDE8F08102460020D3680B400BB127
:10155000012000E0002070470AB1016100E0416114
:10156000704700000148007870470000210000200B
:101570000148007870470000200000200020014949
:101580000878704739000020084A1178084A074B4C
:101590001B7812F833004FF6FF7202EA0020044A6B
:1015A000024B1B7802EBC302507870471C000020EE
:1015B000B000002010B50446402202492046FEF744
:1015C000D3FD10BD7000002000BFFEE710B540F253
:1015D000CF2140F21F30FFF7A3FBFFF7B3F9FFF76E
:1015E0000BFA64220249034800F000F910BD000024
:1015F000540900204809002010B500F007FE00F053
:1016000062F800F02FF84FF4165000F002F900F0E5
:10161000E1F800F007F800F0A9F8FFF7D7FF00F0B5
:1016200005F810BD10B5FFF757FA10BD10B5FFF75C
:1016300087FA0020FFF7DEFA0120074908704FF40F
:101640007A70064908804FF6FF700549088001F05E
:1016500003FE0349088010BD390000203C00002033
:101660003A00002010B5FFF7F5FA10BD10B5402183
:101670000648FEF792FD00200549087005490870EC
:10168000054908700549086010BD00007000002081
:101690000C0000200D0000200E0000201000002093
:1016A000704730B50B460024048044808280C4809B
:1016B0008360002104E0002485686C544C1C21B236
:1016C0009142F8DB30BD10B5FFF7CAFA10BD00003B
:1016D0000CB5002000218DF800108DF801108DF858
:1016E00003108DF807108DF802108DF804108DF896
:1016F00006108DF8051010210A4A11700021517052
:1017000000BF08E0084901EBC001009A0A60019A95
:101710004A60411C08B21028F4DB0349014A5160B9
:101720000CBD000014000020B00000201CB5FFF725
:10173000CFFF4FF6FF7420128DF80000E0B28DF855
:101740000100FF208DF8030078208DF8070068461F
:1017500000F08AF81CBD704710B5FFF787FFFFF750
:101760009FFFFFF7F8FFFFF7E1FF10BD30B5164808
:1017700000684FF47A72B0FBF2F1B1F1807F01D3CF
:1017800001201DE021F07F40401E4FF0E02250611B
:1017900050170F22002807DA13071D0E0B4B00F01D
:1017A0000F04241F1D5503E013071C0E084B1C5487
:1017B00000BF00204FF0E022906107201061002060
:1017C00008B100BFFEE730BD5400002018ED00E076
:1017D00000E400E010B5472140F2E730FFF772FA6D
:1017E000472140F2E730FFF7CFFA10BD30B50B4686
:1017F0000024048044808280C4808360002105E04E
:101800000024856825F811404C1C21B29142F7DB79
:1018100030BD10B5044600F005F82046FFF7E4FAA5
:1018200010BD000010B5002406E000200A4908554C
:101830000A490855601C04B2B4F5806FF5DB4FF41B
:10184000806205490648FFF72CFF4FF48062034988
:101850000448FFF726FF10BD48010020480500207E
:10186000300100203C01002010B5014601220C4847
:1018700043780078401E984204DC0AB9012010BD6C
:101880000020FCE706484078401C054C6070054885
:1018900000EBC3000C6804604C6844601046EEE73F
:1018A00014000020B000002070B5044612480088E3
:1018B000401C1149088008460088A0421BDB00201C
:1018C00008804FF480710D48FFF73DFEC0F1010024
:1018D000C5B22A464FF480710848FFF73DFE042147
:1018E0000748FFF730FEC0F10100C5B22A460421C7
:1018F0000348FFF731FE70BD0A00002000080140D8
:101900000014014000BFFEE77047000000F01F0216
:1019100001219140024A430942F823107047000018
:1019200080E200E070B5002100230F22C47804B3E8
:10193000154C246804F4E064C4F5E064210AC1F1A4
:101940000403CA40447804FA03F184781440214324
:1019500009010E4C0678A155047804F01F050124F6
:10196000AC4005786D11AD0005F1E025C5F80041EA
:1019700009E0047804F01F050124AC40044D06780A
:10198000761145F8264070BD0CED00E000E400E063
:1019900080E100E002490143024A11607047000003
:1019A0000000FA050CED00E070B504460025207833
:1019B000012805D02078022802D02078032804D1FD
:1019C00001252046FEF792FFE087284670BD70474C
:1019D00010B5FFF7C7FD70B107480078401C0649F5
:1019E000087008460078022803DB0020087000F029
:1019F000F1FAFEF79BFF10BD080000202DE9F0472B
:101A00008AB0FFF7B5FD00285CD0012109A800F0DD
:101A1000C9FA18B19DF8240000F074F82B4800882A
:101A2000401C2A49088008460088B0F5C87F44DB7E
:101A300008A800F09BFA00283CD0BDF82000FEF773
:101A40003FFD80464FF06632214BFEF758FC0022E6
:101A5000204BCDE90001FEF7C4FC1F4A1F4BCDE926
:101A60000201FEF749FC064600221D4BFEF747FC2B
:101A70004FF066321B4BCDE90401FEF7B2FC044681
:101A80000022194BFEF794FBCDE90601FEF725FD78
:101A900000F0FF0A15481649097800F801A014481B
:101AA0000078401C1249087008460078052801DBC0
:101AB00000200870002005490880FA20FFF7F4FE96
:101AC000FEF73AFF0AB0BDE8F087000000000020F2
:101AD00066660A400000B040B81E85EB51B8F63F7C
:101AE00000408F406666114000003940030000202E
:101AF0000200002010B504463D21204600F09AFA6D
:101B000010BD000030B5B1B00546402111A8FEF768
:101B100044FB2DE001A8FFF74DFD402201A921A8BB
:101B2000FEF722FB9DF88400012802D002281DD177
:101B300004E00DF18500FFF7DDFF18E00DF18500F1
:101B400000F050FE04468DF8444022460CA10DF1F1
:101B5000450000F0EDFE3D2021AA009091789DF80F
:101B6000850011AB002200F03AFA00E000BF00BF90
:101B7000284600F0B9FD0028CCD131B030BD0000BE
:101B80004F4B3D25642C545950455F524F55544599
:101B90002041434B000000000146C88808B90120DD
:101BA00070470020FCE7000001460020034A50680F
:101BB00020F440400843506070470000001002408D
:101BC00029B1064A52690243044B5A6104E0034AB0
:101BD00052698243014B5A61704700000010024075
:101BE00029B1064AD2690243044BDA6104E0034A90
:101BF000D2698243014BDA61704700000010024055
:101C000029B1064A92690243044B9A6104E0034AEF
:101C100092698243014B9A617047000000100240B4
:101C20000F48006840F001000D4908600846406810
:101C30000C4908400A494860084600680A490840BB
:101C4000074908600846006820F4802008600846BC
:101C5000406820F4FE0048604FF41F008860704721
:101C6000001002400000FFF8FFFFF6FE30B5002133
:101C70000022002400232D4D6D6805F00C0121B1D8
:101C8000042905D0082923D105E0294D056022E06B
:101C9000274D05601FE0254D6D6805F47012234D3A
:101CA0006D6805F48034022505EB92421CB9214D84
:101CB000554305600BE01D4D6D6805F400351DB101
:101CC0001C4D5543056002E0194D5543056002E087
:101CD000174D056000BF00BF144D6D6805F0F001A1
:101CE0000909154D6B5C0568DD4045600F4D6D6859
:101CF00005F4E061090A104D6B5C4568DD408560C4
:101D00000A4D6D6805F46051C90A0B4D6B5C45685E
:101D1000DD40C560054D6D6805F44041890B074DF8
:101D20006B5CC568B5FBF3F5056130BD0010024082
:101D300000127A0000093D003E0000204E00002005
:101D400010B501460022002300204A11012A02D1C9
:101D5000094C236806E0022A02D1074C236A01E0FD
:101D6000054C636A01F01F02012494401C400CB131
:101D7000012000E0002010BD001002400248406831
:101D800000F00C00704700000010024001460020E7
:101D9000034A506820F0F00008435060704700008C
:101DA000001002401149096821F480310F4A116086
:101DB0001146096821F480211160B0F5803F03D0FD
:101DC000B0F5802F0ED106E00849096841F4803152
:101DD000064A116007E00549096841F4A021034A59
:101DE000116000E000BF00BF70470000001002401B
:101DF00001460020034A506820F4E0600843506028
:101E0000704700000010024001460020034A50685D
:101E100020F4605040EAC10050607047001002405A
:101E20000149086670470000000042420246002057
:101E3000044B586820F47C1042EA01031843014B1C
:101E4000586070470010024001460020034A506865
:101E500020F003000843506070470000001002406B
:101E600038B5002000900024002500BF3120FFF786
:101E700067FF05460098401C00900098B0F5A06FE1
:101E800001D0002DF2D03120FFF75AFF08B1012414
:101E900000E00024204638BD70B506460C460025FB
:101EA000FFF76CFB18B14FF47A701A4908801A4892
:101EB000007808B9012507E00020FEF79BFE0546E3
:101EC0004FF47A7013490880ADB112480088A042DF
:101ED00011DB2146304600F0EBFCA04204DA0FA0F3
:101EE00000F016FD002070BD0A480088001B09495B
:101EF00008800120F7E71DB910A000F009FD06E0F9
:101F000004480088A04202DA11A000F001FD002080
:101F1000E9E700003C0000203800002052616469BD
:101F20006F53656E6444617461D6D0B4AEBFDABBE2
:101F3000BAB3E5C7F8D2E7B3F6000000C7D0BBBB21
:101F4000B4ABCAE4C4A3CABDCAA7B0DC0000000099
:101F5000CAFDBEDDCCABB6E06C6F7261BDD3CAD535
:101F6000BBBAB3E5C7F8D2E7B3F6000070B50446D4
:101F70000025012221460348FFF7D7F8C5B22846BD
:101F800070BD00004809002070B5044600250122FC
:101F900021460348FFF7A7F8C5B2284670BD0000E8
:101FA0003001002070B504460D4600262A46214621
:101FB0000248FFF798F8C6B2304670BD3C010020D9
:101FC00010B5FFF7D7F8FFF7F7F800F0F1FB00F0D6
:101FD0006DF810BD10B5FFF7F3FF10BD70472DE988
:101FE000F04190B005460E4617461C46DDF8588075
:101FF00001208DF80000424621460DF10100FEF758
:10200000B3F86B463A463146284600F02BF810B03C
:10201000BDE8F08110B50446E1B2054800F053FB7D
:1020200000BF4021024800F081FA0028F9D010BD1D
:102030000038014070B590B004460D4601208DF87F
:1020400000002A4621460DF10100FEF78DF8FFF74A
:102050009BFA0646F1B230126B46002200F002F8FD
:1020600010B070BD2DE9F04192B005460E461746FE
:102070001C464FF000088DF805508DF806608DF86D
:1020800007702046FFF790FC8046B8F1000F09DD8D
:102090004022214602A8FEF767F843210DF1050012
:1020A000FFF7FAFE12B0BDE8F081000010B590B065
:1020B00040216846FEF771F801F0CEF80446201280
:1020C0008DF80000E0B28DF8010007480749097853
:1020D00000EBC100C0788DF802003D21684600F099
:1020E00007F810B010BD0000B00000201C00002058
:1020F00030B591B004460D4602208DF804002A4602
:1021000021460DF10500FEF72FF801AB0022FF215B
:102110000846FFF7A7FF11B030BD10B500F002F878
:1021200010BD00000CB500200190009033480068FD
:1021300040F480303149086000BF3048006800F446
:10214000003000900198401C0190009818B9019847
:10215000B0F5A06FF1D12948006800F4003010B14B
:102160000120009001E0002000900098012843D158
:102170002348006840F010002149086008460068C4
:1021800020F0030008600846006840F00200086084
:102190001A4840681949486008464068486008463F
:1021A000406840F4806048600846406820F47C1035
:1021B00048600846406840F4E810486008460068F7
:1021C00040F08070086000BF0C48006800F00070AC
:1021D0000028F9D00948406820F00300074948600A
:1021E0000846406840F00200486000BF034840686D
:1021F00000F00C000828F9D10CBD000000100240CE
:102200000020024010B500F013F910BD10B51348BE
:10221000006840F001001149086008464068104914
:1022200008400E494860084600680E4908400B49BE
:1022300008600846006820F480200860084640686E
:1022400020F4FE0048604FF41F008860FFF765FF30
:102250004FF000600449086010BD0000001002400B
:102260000000FFF8FFFFF6FE08ED00E010B50121C9
:10227000880700F068F8012803D10121800700F0E9
:1022800053F80A480088401C08490880084600881E
:10229000022804DB00200880012005490870054859
:1022A0000068401C0349086010BD000028000020A1
:1022B000200000202400002010B50121064800F075
:1022C00042F818B10121044800F02EF803480088B4
:1022D00000F0D6FA10BD0000000400402E000020DF
:1022E00010B501210D4800F02EF8012803D101217D
:1022F0000A4800F019F80A480088401C00B2084952
:1023000008800846B0F90000B0F57A7F04DB0020B1
:10231000088001200349087010BD0000000C004037
:102320002A00002021000020CA430282704721B108
:10233000028842F00102028004E002884FF6FE7338
:102340001A400280704730B5024600200023002466
:10235000158A05EA0103958905EA010413B10CB158
:10236000012000E0002030BD1AB183890B43838136
:1023700002E083898B438381704782884FF68F7395
:102380001A40828082880A43828070470022028835
:102390001D4B98420ED01D4B98420BD0B0F1804F90
:1023A00008D01B4B984205D01A4B984202D01A4BCA
:1023B000984204D14FF68F731A404B881A43174B3B
:1023C000984207D0164B984204D04FF6FF431A406C
:1023D000CB881A4302808B8883850B8803850A4B40
:1023E00098420BD0094B984208D00E4B984205D02A
:1023F0000D4B984202D00D4B984201D10B7A0386C7
:102400000123838270470000002C0140003401400A
:102410000004004000080040000C00400010004094
:1024200000140040004001400044014000480140C9
:102430000448006820B103480068401E0149086054
:10244000704700006800002008B50720009040F2A7
:102450002551214800F077F858B12520FFF756FAAA
:102460001D4800F02BF9C0B200909DF8000000F06C
:1024700013FA0821184800F059F8012806D108215C
:10248000154800F02FF8144800F018F940F22771B1
:10249000114800F058F8F0B140F227710E4800F0F2
:1024A0002AF82520FFF732FA6846FFF76DFD01286C
:1024B00004D19DF80010084800F005F90748FFF71F
:1024C0006BFB40B1002006490870002240F22771E2
:1024D000014800F062F808BD0038014030010020DA
:1024E0002C00002001F40072B2F5007F00D100BF83
:1024F000CA430280704710B50022002340F66A14D8
:10250000A14200D100BF0A1201249440A3B2DC43CF
:10251000048010BD21B1828942F40052828104E01E
:1025200082894DF6FF731A4082817047024600206F
:10253000B1F5007F00D100BF13880B400BB1012023
:1025400000E00020704770B50246002400230025FB
:10255000002040F66A16B14200D100BFC1F3421517
:1025600001F01F03012606FA03F3012D02D196891B
:10257000334006E0022D02D1168A334001E0968AEC
:1025800033400C12012606FA04F41688344013B1C5
:102590000CB1012000E0002070BDF0B5034600241E
:1025A00000260025002040F66A17B94200D100BF7E
:1025B0001846C1F3421401F01F06012707FA06F579
:1025C000012C01D10C3004E0022C01D1103000E0CC
:1025D00014301AB107682F43076002E00768AF4361
:1025E0000760F0BD2DE9F04786B005460E46002491
:1025F000A24600BFA1460027B08900B100BF2F4608
:102600002C8A4CF6FF700440F08804432C82AC897D
:102610004EF6F3100440B0883189084371890843AD
:102620000443AC81AC8A4FF6FF400440B0890443B8
:10263000AC8201A8FFF71AFB1F48874202D1DDF8E0
:1026400010A001E0DDF80CA0A88900F4004040B122
:102650000AEBCA0000EB0A1031684900B0FBF1F840
:1026600007E00AEBCA0000EB0A1031688900B0FBF2
:10267000F1F86420B8FBF0F004012009642101FBAB
:102680001089A88900F4004040B1322000EBC90055
:10269000B0FBF1F000F00700044308E0322000EB4B
:1026A00009106421B0FBF1F000F00F0004432C810D
:1026B00006B0BDE8F0870000003801400146888878
:1026C000C0F308007047C1F30802828070474FF4DE
:1026D0001651016000218180C18001810C2141815E
:1026E00000218181704700002DE9F041044600255A
:1026F00000F0F8FD0746274E2748007878B32748B2
:102700000068381A32281DD225480078401E3454FB
:1027100023480078401C2249087022480078401E57
:10272000204908700846007800282BDC1C480078F7
:10273000402827D1701E00F037F8054600201649C2
:1027400008701FE03F2017490870012014490870E5
:102750001048401E047001200F49087012E0FFE786
:10276000012C03D0022C01D0032C0BD13F200D49AA
:10277000087001200A4908700648401E04700120B4
:102780000549087000F0AEFD044908602846BDE820
:10279000F0810000710000200D00002010000020DA
:1027A0000C0000200E0000200146012070470000B0
:1027B00070B50A494A784C68FF250023002008E0DC
:1027C00004EBC006F178A94201DA0D460346411C2C
:1027D000C8B29042F4DB02490B7070BD14000020B7
:1027E0001C0000207CB5044600266178207800F0AB
:1027F00011FD0546002D05DBE9B2204600F01CF86E
:10280000064616E020788DF8000060788DF801000B
:10281000A078FF2802DAA078401C00E0FF20C0B2B8
:102820008DF8030064208DF807006846FFF71CF858
:10283000064630467CBD00007CB503460E4D6C68F4
:1028400001209A7804EBC1052E6800966D68019509
:10285000FF2A09DC01D1FF2500E0551CEDB28DF8FF
:10286000035064258DF8075004EBC105009E2E60CF
:10287000019E6E607CBD00001400002000BFFEE7DA
:1028800031B50024012269460248FEF761FDC4B259
:10289000204638BD4809002031B500240122694690
:1028A0000248FEF731FDC4B2204638BD3C0100208D
:1028B00070B506460C460025224631460948FEF70B
:1028C00023FDC5B2B5F5806F04DA0748007808B972
:1028D000FEF764FDA54203DA611B04A000F018F8BE
:1028E000284670BD300100202C0000205541525474
:1028F00031B7A2CBCDBBBAB3E5C7F8D2E7B3F62C5C
:10290000BBB9D2AA2564B8F6D7D6BDDA000000005C
:102910000FB4054B10B503A9044A029800F0DEF885
:1029200010BC5DF814FB0000493200086C00002068
:102930000FB4084B10B504A902AA039800F0CEF812
:10294000044602A9002000F060FC204610BC5DF89F
:1029500014FB00000B32000802E008C8121F08C177
:10296000002AFAD170477047002001E001C1121F10
:10297000002AFBD1704700002DE9FF5FDDE902204E
:10298000010DDDF838B0024318D044F61050A1F222
:10299000FF3141430D140F98012820D0A5EB0B0007
:1029A000401C5FEA000A4FF00004474EDFF81C911C
:1029B000A046504616D5CAF1000728E00F9801241A
:1029C00043A2012808D0002100980F9BC0E90021F4
:1029D000C0E90243BDE8FF9F6FEA0B01F4E7CBF1CA
:1029E0000000DEE7074612E0F80707D0224633462C
:1029F00040464946FDF783FC8046894622463346D9
:102A000010461946FDF77BFC04460E467F10002F4A
:102A1000EAD1DDE90201BAF1000F42464B4602DA83
:102A2000FDF76DFC01E0FDF7DCFC04460E460022DC
:102A3000284BFDF76BFD03D84FF0FF30014607E050
:102A40000022254B20463146FDF7B2FBFDF74BFE39
:102A5000102409E0002C0ADB0A220023FDF784FD84
:102A6000019B30321A55641E50EA0102F2D1641CF7
:102A7000019AC4F1110314440F9A012A03D00122D0
:102A800008430DD10AE0084304D000204FF0110B99
:102A90000F9080E7A3EB0B056D1E0DE05B4504DD99
:102AA0004FF0000205F1010504E003DA4FF00002E7
:102AB000A5F10105002AECD000980F99C0E9023178
:102AC000C0E9004586E70000000024400000F03F18
:102AD000300000000000F0430000E03F2DE9FF4F10
:102AE00095B09B468946064600250FE2252877D1FA
:102AF00000242746F84A0121059400E0044316F813
:102B0000013F203B01FA03F01042F7D130782A2828
:102B100011D06FF02F033078A0F13002092A16D8B7
:102B2000059A44F0020402EB820203EB42021044D5
:102B3000761C0590EFE759F8042B0592002A03DA7A
:102B4000504244F40054059044F00204761C30785E
:102B50002E2816D116F8010F44F004042A280DD0AF
:102B60006FF02F023078A0F13003092B09D807EB62
:102B7000870302EB4303C718761CF3E759F8047B7D
:102B8000761C30786C280FD006DC4C2817D06828CB
:102B90000DD06A2814D104E0742810D07A280FD1FF
:102BA0000DE044F400140AE044F4801401E044F41D
:102BB00040147278824202D104F58014761C761C8F
:102BC000307866280BD013DC582877D009DC002831
:102BD00075D04528F6D04628F4D047281AD19DE173
:102BE00018E0632835D0642879D0652812D195E1A2
:102BF000702873D008DC6728F1D069286FD06E2860
:102C00000DD06F2806D1B5E073282CD0752875D06B
:102C1000782874D05A46179990476D1C75E1C4F313
:102C20000250022809D003280DD0D9F8001004283A
:102C30000DD00D6009F1040967E1D9F80010EA1719
:102C4000C1E90052F6E7D9F800100D80F2E70D70E7
:102C5000F0E719F8041B8DF8001000208DF8010032
:102C6000EA46012003E059F804AB4FF0FF3061075A
:102C70004FF0000102D40DE008F101018846B9428D
:102C80000FDA8045F8DB1AF808100029F4D108E0C3
:102C900008F1010188468142FADB1AF80810002980
:102CA000F6D105985B46A0EB080721463846179AEF
:102CB00000F094FA284400EB080507E04DE029E114
:102CC0000DE01AF8010B5A4617999047B8F1010820
:102CD000F7D25B4621463846179A13E142E00A22B2
:102CE0000092C4F302524FF0000A022A08D059F8A9
:102CF00004CB032A4FEAEC710AD00DE029E02AE068
:102D000009F1070121F00702F2E802C1914609E04A
:102D10000FFA8CFC4FEAEC71042A03D14FFA8CFCB9
:102D20004FEAEC71002907DA0A460021DCF1000CB9
:102D300061EB02012D2202E0220504D52B228DF841
:102D40000420012203E0E20701D02022F7E79046A9
:102D500059E00A2102E010220DE010214FF0000A94
:102D600000910BE010224FF0000A44F00404082701
:102D7000009203E008224FF0000A0092C4F30252CE
:102D8000022A05D059F804CB0021032A08D009E013
:102D900009F1070121F00702F2E802C1914605E0BE
:102DA0001FFA8CFC042A01D10CF0FF0C4FF0000834
:102DB000220728D5702806D0009B83F0100353EA21
:102DC0000A0305D00EE040228DF80420012208E01D
:102DD0005CEA010206D030228DF804208DF805004F
:102DE00002229046009B83F0080353EA0A030AD1AB
:102DF0005CEA010201D1620705D530228DF804207A
:102E00004FF001087F1E582804D034A003900EA86C
:102E100002900DE036A0F9E753466046009AFDF7B0
:102E2000A3FB84460398825C0298401E02900270C5
:102E30005CEA0100F0D1029806A9081A00F1200A04
:102E4000600702D524F4803400E00127574502DDF5
:102E5000A7EB0A0000E0002000EB0A0100900598B3
:102E60004144401A0590E00306D45B462146179A78
:102E7000059800F0B3F90544002706E001A85A467A
:102E8000C05D179990476D1C7F1C4745F6DBE0033A
:102E90000CD55B462146179A059800F09FF905442A
:102EA00004E030205A46179990476D1C0099481E3F
:102EB00000900029F5DC08E0029802995A46007853
:102EC000491C0291179990476D1CBAF10001AAF1B3
:102ED000010AF1DC65E100000928010030313233DC
:102EE0003435363738396162636465660000000046
:102EF0003031323334353637383941424344454630
:102F00000000000000F058F90544761C30780028D5
:102F10007FF4ECAD19B02846BDE8F08F620700D40D
:102F2000062709F1070222F0070CFCE80223E1461C
:102F300003F000485FEA080C02D00FF2702C0DE09D
:102F40005FEA045C02D50FF2682C07E05FEAC47CFC
:102F500002D00FF2602C01E0AFF2700C4FF0FF389E
:102F600023F00043CDF850C065280CD006DC45287E
:102F700009D046281DD047283DD13DE0662818D00D
:102F800067287ED138E00021112F01DB112000E0FD
:102F9000781CCDE9000106A90EA8FFF7EDFCDDE9DC
:102FA0000F010E9A03910021009207F1010A04918A
:102FB0004DE04FF000400097CDE9011006A90EA8A2
:102FC000FFF7DAFCDDE90F0203920E9B1199002254
:102FD000DDF80CA00093049211B9791C00EB010AF2
:102FE000B7EB0A0004D4C0F1FF3007F1010A0490E6
:102FF000AAEB0700019044E0012F00DA012700212D
:10300000112F01DD112000E03846CDE9000106A9AD
:103010000EA8FFF7B1FCDDE90F010E9A0391002124
:1030200004910092BA4621070CD40399514500DA65
:103030008A46BAF1010F05DD009AAAF10101515C3F
:10304000302908D0B84202DA10F1040F06DA012163
:10305000CDE9011015E0AAF10101E9E7002805DC3E
:10306000049901440491AAEB000102E0411C51457E
:1030700000DD8A460499401A401C01904FF0004040
:103080000290200704D40198504501DBCDF804805C
:1030900000208DF84F0002980DF14F07B0F1004F5E
:1030A00025D02B200E9002984FF0020800280CDA51
:1030B000404202902D200E9007E00A210298FDF771
:1030C0003DFA3031029007F8011DB8F10001A8F176
:1030D0000108F2DC02980028EFD1791E0E980870E2
:1030E000307800F0200040F0450007F8020D12A8EB
:1030F000C01B00F107081498007800B1012000EB14
:103100000A01019801EBE07105984144401A401E04
:103110000590E00306D45B462146179A059800F017
:103120005DF805441498007818B15A4617999047ED
:103130006D1CE00324D55B462146179A059800F0E4
:103140004DF805441CE00498002807DBDDE9030185
:10315000884203DD0098405C179901E01799302000
:103160005A469047049805F10105401C04900198C7
:10317000401E019004D12E205A46179990476D1C8D
:10318000BAF10001AAF1010ADDDC05E017F8010B34
:103190005A46179990476D1CB8F10001A8F1010833
:1031A000F4DC5B462146179A0598ABE62D0000003B
:1031B0002B000000200000002DE9F041044600250E
:1031C0001E461746880404D405E039462020B0473F
:1031D0006D1C641EF9D52846BDE8F0812DE9F0414B
:1031E000044600251E469046C80301D5302700E05E
:1031F0002027880404D505E041463846B0476D1CB9
:10320000641EF9D52846BDE8F0810A68531C0B609E
:103210001070704730B502460B460A48457844683E
:1032200000210AE014F83100904205D114F8310071
:10323000984201D148B230BD491CA942F2DB4FF09F
:10324000FF30F8E71400002070B504460D46E0B2E8
:10325000FEF7E0FE204670BD38B54FF6FF74002043
:1032600000900D4800882146884202D00A48008814
:1032700038BD6A460221002000F03AF848B19DF8B6
:1032800000404FF6FF7000EA04249DF80140024818
:1032900004802046ECE700003A00002010B5FEF75D
:1032A0006DF910BDFEF7A8F9FEF756FA04A0FFF776
:1032B0002FFB03E0FEF7A2FBFEF78AFBFAE7000014
:1032C000496E69742053797374656D206861732049
:1032D0006265656E2066696E69736865642E0D0AA5
:1032E0000000000001480068704700002400002032
:1032F0002DE9FC4106460D4617460020019019A015
:10330000006800908DF801608DF802500220FDF7F2
:1033100071FC0C20FDF744FF03216846FFF7C8FA53
:103320000C20FDF73DFF032101A8FEF73BFE804680
:1033300000240AE001A8005D1DF80410884202D0B4
:103340000020BDE8FC81601CC4B2032CF2DB2946DE
:103350003846FEF727FEA84201D10120F1E7002000
:10336000EFE70000C10001008833000800000020E2
:103370007000000058290008F83300087000002091
:10338000B0110000682900080000000000000000E3
:10339000000000000000000000000000000000002D
:1033A000000000000000000000000000000000001D
:1033B000000000000000000000000000000000000D
:1033C00000000000000000000000010203040102F0
:1033D00003040607080902040608000000A24A04C4
:1033E00000000000000000000102030406070809B5
:0833F0000000000000000000D5
:0400000508000145A9
:00000001FF
