:020000040800F2
:100000008022002045010008D11A0008911700083D
:10001000CD1A0008310A00088D2C000800000000ED
:10002000000000000000000000000000E5220008C1
:10003000C712000800000000AF1B00084925000897
:100040005F0100085F0100085F0100085F01000810
:100050005F0100085F0100085F0100085F01000800
:100060005F0100085F010008911300085F010008AC
:100070005F0100085F0100085F0100085F010008E0
:100080005F0100085F0100085F0100085F010008D0
:100090005F0100085F0100085F0100085F010008C0
:1000A0005F0100085F0100085F0100085F010008B0
:1000B000B1250008FD2500085F0100085F01000868
:1000C0005F0100085F0100085F0100085F01000890
:1000D0005F0100088D270008292800085F0100083B
:1000E0005F0100085F0100085F0100085F01000870
:1000F0005F0100085F0100085F0100085F01000860
:100100005F0100085F010008252600085F01000864
:100110005F0100085F0100085F0100085F0100083F
:100120005F0100085F010008011000085F0100087E
:10013000DFF80CD000F066FB0048004729370008C4
:10014000802200200648804706480047FEE7FEE779
:10015000FEE7FEE7FEE7FEE7FEE7FEE7FEE7FEE777
:1001600051250008310100080649074A0868504334
:1001700043F23902104408604008704701490860A2
:10018000704700006C0000206D4EC64140EA01033C
:100190009B0703D009E008C9121F08C0042AFAD23D
:1001A00003E011F8013B00F8013B521EF9D2704701
:1001B000D2B201E000F8012B491EFBD270470022A9
:1001C000F6E710B513460A4604461946FFF7F0FF56
:1001D000204610BD421C10F8011B0029FBD1801ADB
:1001E00070472DE9FE4F804681EA0300C00F0C46A0
:1001F000009021F0004123F00045B8EB0200A94136
:1002000005D24046214690461C460B46024623F046
:100210000040104347D0270DC7F30A00C3F30A512B
:100220000290401A019040286BDAC3F3130040F4A7
:10023000801B0098924620B10023D2EB030A63EBA7
:100240000B0B01985946C0F14002504600F0FDF9F1
:1002500006460D4650465946019A00F015FA10EB35
:1002600008006141002487EA115284EAE7731A43C7
:1002700040D0009A62B3019A012A4FEA075215DC76
:10028000001B61EB02014FF0004202EA0752CDE988
:100290000042001C41F5801132462B4600F04CFA1A
:1002A00003B0BDE8F08F40462146F9E7001B61EB43
:1002B0000201001C41F5801300185B412018A2F5D3
:1002C000001747EB030140EAD570B6196D4111E004
:1002D0006D084FEA360645EAC0754FEA0752001B23
:1002E00061EB0201001C41F5801149084FEA300022
:1002F0000019514132462B4603B0BDE8F04F00F0E3
:100300000CBA0098012240000023D0EB020263EBFC
:10031000E073009821464FEAE074B8EB000061EB0F
:100320000401E9E783F000435BE781F0004158E70F
:100330002DE9FE4F81EA030404F0004421F000415E
:1003400000944FF0000B23F0004350EA01045ED00C
:1003500052EA03045BD0C3F30A54C1F30A552C4498
:10036000A4F2F3340194A0FB0254C1F3130141F44D
:100370008011C3F3130343F4801301FB024400FB19
:10038000034E840A970A44EA815447EA8357A4FB40
:10039000076802958D0A05FB07854FEA932C04FB3D
:1003A0000C542705029D4FEA065847EA1637B5EB6D
:1003B00008056EEB070C870E920E47EA811742EA9A
:1003C0008312A7FB0201B6EB0B0164EB00042B0DBB
:1003D00043EA0C335E1844EB1C50DA465146E7FB07
:1003E0000201C5F313044FEA0B3343EA14534FEAF7
:1003F0000432019C43EA0603A4F10C040294009C1D
:10040000CDE900B400F098F903B0BDE8F08F00200A
:100410000146F9E72DE9F04D81EA030404F0004BB1
:1004200021F0004514464FF0000A23F0004150EA45
:10043000050220D054EA01021DD0C5F30A57024636
:10044000C5F31303C1F31300C1F30A5640F480153A
:1004500043F48013A7EB0608101BD64608F2FD38BC
:1004600073EB050002D308F1010801E092185B412B
:10047000B8F1000F03DA00200146BDE8F08D00203E
:100480004FF48011064684460EE0171B73EB0507F8
:1004900005D3121B63EB050306434CEA010C490824
:1004A0004FEA300092185B4150EA0107EDD152EA61
:1004B000030012D082EA040083EA0501084305D054
:1004C000101BAB4106D20122002306E000224FF0B0
:1004D000004302E06FF0010253101AEB06004CEBF0
:1004E000085110EB0A0041EB0B01BDE8F04D00F0A4
:1004F00014B996230022114600F0E1B800F0004242
:1005000020F00040C10DC0F3160040F400007F2928
:1005100001DA00207047962903DCC1F19601C8403A
:1005200001E096398840002AF4D04042704700F03C
:10053000004230F000400AD0C10D01F56071C0F3F7
:10054000160042EA0151C2084007114370470020DB
:100550000146704730B5041E71F1000404DB4FF012
:100560000044404264EB0101141E73F1000405DBFA
:100570001C464FF00043524263EB0403994208BF0C
:10058000904230BD01F0004330B421F0004150EA08
:10059000010206D00A0DA2F56072C1F31301002A10
:1005A00002DC30BC00207047440F44EAC104C100A3
:1005B000E01830BC00EBC25000F078B830B50B4604
:1005C000014600202022012409E021FA02F59D4283
:1005D00005D303FA02F5491B04FA02F52844151E57
:1005E000A2F10102F1DC30BD2DE9F05F05460020EB
:1005F00092469B4688460646814640241BE0284694
:1006000041464746224600F02FF853465A46C01A44
:10061000914110D311461846224600F016F82D1AC3
:1006200067EB01084F4622460120002100F00DF83B
:1006300017EB00094E41201EA4F10104DFDC4846FF
:1006400031462A464346BDE8F09F202A04DB203A83
:1006500000FA02F1002070479140C2F1200320FA15
:1006600003F3194390407047202A04DB203A21FA13
:1006700002F00021704721FA02F3D040C2F12002BB
:100680009140084319467047202A06DBCB17203AD1
:1006900041FA02F043EAE07306E041FA02F3D04087
:1006A000C2F1200291400843194670470029A8BFB3
:1006B0007047401C490008BF20F00100704710B48B
:1006C000B0FA80FC00FA0CF050EA010404BF10BC40
:1006D000704749B1CCF1200421FA04F411FA0CF16D
:1006E00018BF012121430843A3EB0C01CB1D4FEAA6
:1006F00000614FEA102042BF002010BC704700EBA1
:10070000C35010440029A4BF10BC7047401C4900CE
:1007100008BF20F0010010BC704710B5141E73F123
:10072000000408DA401C41F1000192185B411A43B1
:1007300001D120F0010010BD2DE9F04D92469B46FD
:1007400011B1B1FA81F202E0B0FA80F220329046A3
:10075000FFF77BFF04460F4640EA0A0041EA0B011F
:1007600053465A46084313D0114653EA010019D0A4
:10077000C8F140025046FFF777FF05460E46504647
:1007800059464246FFF761FF084305D0012004E0C7
:1007900020463946BDE8F08D0020054346EAE07664
:1007A0002C4337430A986305E40AA0EB08000022B3
:1007B000FD0A44EA47540A3002D500200146E9E721
:1007C000010510196941DDE9084500196941BDE8D5
:1007D000F04DA2E7C1F30A52C1F3130140F2FF3317
:1007E00041F480119A4202DA00200146704740F23B
:1007F00033439A42A2F2334202DC5242FFF734BF43
:10080000FFF723BF064C074D06E0E06840F0010308
:1008100094E8070098471034AC42F6D3FFF78CFCFD
:10082000EC3700080C38000821B1826842F0010260
:10083000826003E0826822F001028260704721B189
:10084000826842F48072826003E0826822F48072DF
:100850008260704710B504461248844208D10121D5
:10086000401501F015FB0021601501F011FB17E0A8
:100870000D48844208D10121001501F009FB002137
:10088000201501F005FB0BE00848844208D1012146
:10089000C80301F0FDFA00214FF4004001F0F8FA1E
:1008A00010BD00000024014000280140003C014030
:1008B00021B1826842F48012826003E0826822F4EF
:1008C000801282607047014600208A6802F00402AC
:1008D0000AB1012000E000207047014600208A682C
:1008E00002F008020AB1012000E000207047000079
:1008F00030B502460020002350680F4C20400D798F
:100900000C6844EA05242043506090680B4C20405A
:10091000D1E902542C434D7944EA450420439060C8
:10092000D06A20F470000C7C641EE4B2234340EAD9
:100930000350D06230BD0000FFFEF0FFFDF7F1FF75
:10094000F0B504460D4600200021092D11DDE068B8
:10095000A5F10A0606EB4607072606FA07F18843C3
:10096000A5F10A0606EB460603FA06F10843E06025
:100970000CE0206905EB4507072606FA07F18843D6
:1009800005EB450603FA06F108432061072A0FDA52
:10099000606B561E06EB86071F2606FA07F1884392
:1009A000561E06EB860605FA06F10843606322E050
:1009B0000D2A0FDA206BD61F06EB86071F2606FAD4
:1009C00007F18843D61F06EB860605FA06F10843B1
:1009D000206310E0E06AA2F10D0606EB86071F26F1
:1009E00006FA07F18843A2F10D0606EB860605FA22
:1009F00006F10843E062F0BD816841F008018160C2
:100A00007047816841F004018160704730B1074947
:100A1000096841F40001054A116005E003490968CD
:100A200021F40001014A11607047000008240140D0
:100A300000BFFEE738B504463D210022631C0020BC
:100A4000009003E033F9025B2A44891E0129F9DC96
:100A500005D118788DF80000BDF900000244D0439C
:100A600000B20090BDF9000038BD000010B502488A
:100A700000F004F810BD000090110020002101805A
:100A80004180C18070470000002001490870704714
:100A9000210000200020014908707047200000203C
:100AA00000B587B04FF4004001F0B6F901214802CB
:100AB00001F0DEF90121042001F0DAF92348FFF703
:100AC000C9FE0220ADF8180000208DF81B0006A911
:100AD0001F4800F081FD002001908DF808008DF87E
:100AE00009004FF4002003900020049001208DF8AD
:100AF000140001A91548FFF7FBFE0723012210216E
:100B00001248FFF71DFF0120FFF780FF01210F486A
:100B1000FFF795FE01210D48FFF7CAFE01210B48A2
:100B2000FFF782FE0948FFF767FF00BF0748FFF79E
:100B3000D4FE0028FAD10548FFF763FF00BF034841
:100B4000FFF7C1FE0028FAD107B000BD0024014024
:100B50000008014000B58BB00121084601F068F99A
:100B6000114800F087FA11480090114801900020C8
:100B70000290012003900020049005904FF48070B3
:100B800006908000079020200890C0010990002066
:100B90000A906946044800F032FB0121024800F047
:100BA0005DFA0BB000BD0000080002404C2401407B
:100BB0002E00002003B58DB00121022001F038F98C
:100BC0001A4800F057FA1A4802900D9803900E98B0
:100BD000059010200490002006908020079040008F
:100BE00008908000099020200A9000020B900020BD
:100BF0000C9002A90D4800F002FB3A208DF8040089
:100C000002208DF8050001208DF806008DF8070000
:100C100001A800F077FF01220221044800F0E6FA63
:100C20000121024800F01AFA0FB000BD3004024062
:100C30000874004008B50121042001F019F90121D0
:100C4000202001F015F94FF48070ADF8000003206A
:100C50008DF8020010208DF8030069460D4800F061
:100C6000BBFC00224FF480710A4800F052FD0420C2
:100C7000ADF8000003208DF8020010208DF803006D
:100C80006946054800F0A8FC01220421024800F052
:100C900040FD08BD00080140001401401FB50121BE
:100CA000082001F0E5F80121084601F0E1F84020B4
:100CB000ADF80C0003208DF80E0010208DF80F0009
:100CC00003A9224800F088FC002240211F4800F0C0
:100CD00020FD2020ADF80C0003208DF80E00102020
:100CE0008DF80F0003A9194800F076FC002220219E
:100CF000164800F00EFD1020ADF80C0048208DF8CD
:100D00000F0003A9114800F067FC0421012000F046
:100D100043FC1020019001208DF80A0000208DF87E
:100D2000080010208DF8090001A800F077FB0A20C8
:100D30008DF8000002208DF801008DF802000120DE
:100D40008DF80300684600F0DDFE1FBD000C014079
:100D500070B5044601251248047004F001024021D8
:100D6000104800F0D6FCC4F3400220210D4800F0EA
:100D7000D0FC02F0F9FC064600BF02F0D1FC08B935
:100D8000012000E00020051E04D002F0EDFC801BD5
:100D90006428F2D90DB9012070BD0020FCE70000E5
:100DA00038000020000C014010B54FF4A06000F0A6
:100DB000E1FE10BD10B501F07BF84FF4803001F07A
:100DC00039F901F095F90446012C24D1102000F0E6
:100DD000C9FB022000F0D4FB002001F01FF9002025
:100DE00001F05AF9A00201F04BF94FF4E011200490
:100DF00001F064F9012001F05BF900BF392001F036
:100E0000E7F80028FAD0022001F066F900BF01F0EF
:100E1000FDF80828FBD110BD7FB505460C46012121
:100E2000084601F015F8ADF80850ADF80440002070
:100E3000ADF80A00ADF8060001A94FF0804001F0BE
:100E400047FC01221146900701F030FC1C208DF870
:100E5000000000208DF8010003208DF80200012021
:100E60008DF80300684600F04DFE0121880701F06F
:100E700000FC7FBD7FB505460C460121022000F035
:100E8000E7FFADF80850ADF804400020ADF80A00C7
:100E9000ADF8060001A9104801F01AFC20210E4807
:100EA00001F00DFC012211460B4801F0FFFB1D2053
:100EB0008DF8000003208DF8010000208DF802005D
:100EC00001208DF80300684600F01CFE0121024855
:100ED00001F0CFFB7FBD0000000400407FB5054658
:100EE0000C460121082000F0B3FFADF80850ADF822
:100EF00004400020ADF80A00ADF8060001A90E4834
:100F000001F0E6FB012211460B4801F0CFFB322035
:100F10008DF8000000208DF8010003208DF80200FC
:100F200001208DF80300684600F0ECFD0121024825
:100F300001F09FFB7FBD0000000C004010B586B0A3
:100F400004460121880300F093FF0121042000F0F2
:100F50008FFF4FF40070ADF8140018208DF81700C3
:100F600003208DF8160005A9224800F035FB4FF448
:100F70008060ADF8140004208DF8170005A91D4805
:100F800000F02AFB01A801F092FD01940020ADF8C9
:100F90000800ADF80A00ADF80C000C20ADF80E000A
:100FA0000020ADF8100001A9134801F00BFD252029
:100FB0008DF8000000208DF801008DF8020001205E
:100FC0008DF80300684600F09DFD012240F2255196
:100FD000094801F0D2FC012240F22771064801F0D5
:100FE000CCFC0121044801F085FC00200349087075
:100FF00006B010BD00080140003801402C00002060
:1010000010B50B4800F0DCF880B13A2000F01F0268
:1010100001219140074A430942F8231000BF0648C6
:1010200000F00EF8054803C8FFF7C4FD10BD00002E
:101030000002001080E200E00001001030000020FB
:1010400000F0805111B10349086001E00249486095
:1010500070470000040402400000024021B1026811
:1010600042F00102026004E002684FF6FE731A408B
:101070000260704701684FF6FE7211400160002166
:10108000016041608160C1604B49884208D14A4992
:101090000839496841F00F01474A083A51608AE02F
:1010A00045491431884208D143490839496841F01B
:1010B000F001414A083A51607DE03F4928318842B9
:1010C00008D13D490839496841F470613A4A083A03
:1010D000516070E038493C31884208D136490839BE
:1010E000496841F47041344A083A516063E032493A
:1010F0005031884208D130490839496841F470219B
:101100002D4A083A516056E02B496431884208D193
:1011100029490839496841F47001274A083A516061
:1011200049E025497831884208D12349083949687E
:1011300041F07061204A083A51603CE01F49884202
:1011400006D1011F096841F00F01021F116032E052
:101150001A491431884208D11849091F096841F019
:10116000F001164A121F116025E014492831884207
:1011700008D11249091F096841F470610F4A121F12
:10118000116018E00D493C31884208D10B49091F14
:10119000096841F47041094A121F11600BE00749C8
:1011A0005031884207D10549091F096841F470216F
:1011B000024A121F116070470800024008040240F2
:1011C00001460020002201F0805313B1054B1A683C
:1011D00001E0054B1A6802EA01030BB1012000E0AF
:1011E0000020704700040240000002401AB103686A
:1011F0000B43036002E003688B430360704710B544
:101200000022026847F6F0739A430C6A8B68234306
:101210000C6923434C6923438C692343CC692343E2
:101220004C6A23438C6A23431A430260CB684360B1
:101230000B6883604B68C36010BD30B50346002067
:1012400016E0B3F900509C68645D0C541C88641C63
:1012500024B21C80B3F90040B3F90450AC4201DB66
:1012600000241C80441C20B2DC88641E24B2DC8074
:10127000B3F90640002C01DD9042E2DB30BD30B511
:101280000346002018E0B3F900509C6834F815407C
:1012900021F810401C88641C24B21C80B3F9004063
:1012A000B3F90450AC4201DB00241C80441C20B282
:1012B000DC88641E24B2DC80B3F90640002C01DD1A
:1012C0009042E0DB30BD704710B5094B5A78596841
:1012D000012009E001EBC003DB795B1E5BB201EB8F
:1012E000C004E371431C58B29042F3DB10BD000010
:1012F0001400002001B504490098086000BF0248AE
:1013000000680028FBD108BD6800002001B50098E6
:1013100006E0002101E04A1C91B20729FBDB401ED8
:101320000028F6D108BD000070B5184C63786168DC
:10133000002228E001EBC20494F90740002C20DCD5
:10134000104615E0114C2578841CA54209DB01EB01
:10135000C005441C01EBC40426682E6064686C6000
:1013600004E001EBC004002525606560441C60B208
:101370009842E7DB5C1EE3B2044C6478641E034DC4
:101380006C70541C62B29A42D4DB70BD1400002011
:1013900010B5102000F02EF801281FD1102000F009
:1013A00023F810210E4800F0A2F901280BD1642087
:1013B000FFF7ACFF10210A4800F099F901280DD180
:1013C000084908700AE06420FFF7A0FF10210448D4
:1013D00000F08DF910B900200249087010BD00001E
:1013E000000C0140390000200149086070470000EE
:1013F00014040140014600200022074B1B6803EA49
:101400000102054B14331B680B4013B10AB10120D4
:1014100000E0002070470000000401400021234943
:101420008279002A3AD00A46126803689A430B462A
:101430001A600A1D126803689A430B1D1A6002792C
:1014400011440A6803681A430A60184A083212688D
:1014500003689A43154B08331A601A1D1268036813
:101460009A43124B0C331A604279102A0ED11A1F7C
:10147000126803681A430D4B08331A601A1D12686C
:1014800003681A43094B0C331A600DE0074942798F
:1014900011440A6803681A430A6005E0027911449E
:1014A0000A6803689A430A6070470000000401401C
:1014B00070B50346002016E00C5CB3F902609D682D
:1014C000AC555C88641C24B25C80B3F90240B3F96B
:1014D0000450AC4201DB00245C80441C20B2DC8858
:1014E000641C24B2DC80B3F90640B3F90450AC426A
:1014F00001DA9042E0DB70BD70B50346002018E0D1
:1015000031F81040B3F902609D6825F816405C88F8
:10151000641C24B25C80B3F90240B3F90450AC42BD
:1015200001DB00245C80441C20B2DC88641C24B2F3
:10153000DC80B3F90640B3F90450AC4201DA9042C2
:10154000DEDB70BD10B5012004490870012240F2B5
:101550002771034801F011FA10BD00002C00002093
:10156000003801400549096821F01001034A116063
:1015700011460968014311607047000000200240D5
:1015800001460020034A106800F03800084310604C
:10159000704700000020024030B500228B071C0F6E
:1015A0000F2303FA04F20B4B8C1053F824309343AF
:1015B000084C8D1044F8253023468C1053F8243005
:1015C0008C07240F00FA04F42343024C8D1044F8D6
:1015D000253030BD080001402DE9F04102460025CC
:1015E0000026002000230024002791F803C00CF0FF
:1015F0000F0591F803C00CF0100CBCF1000F03D0E4
:1016000091F802C04CEA050591F800C0BCF1000F4A
:1016100031D0146800202BE04FF0010C0CFA00F3DD
:10162000B1F800C00CEA03069E4220D183004FF0BF
:101630000F0C0CFA03F7BC4305FA03FC4CEA040454
:1016400091F803C0BCF1280F06D14FF0010C0CFA41
:1016500000FCC2F814C00AE091F803C0BCF1480FC6
:1016600005D14FF0010C0CFA00FCC2F810C0401C70
:101670000828D1D31460B1F800C0BCF1FF0F34DDED
:10168000546800202EE000F1080C4FF0010808FA21
:101690000CF3B1F800C00CEA03069E4221D183008E
:1016A0004FF00F0C0CFA03F7BC4305FA03FC4CEAAD
:1016B000040491F803C0BCF1280F05D100F1080C17
:1016C00008FA0CF8C2F8148091F803C0BCF1480F76
:1016D00007D100F1080C4FF0010808FA0CF8C2F825
:1016E0001080401C0828CED35460BDE8F08102462B
:1016F000002093680B400BB1012000E000207047F0
:1017000002460020D3680B400BB1012000E000200E
:1017100070470AB1016100E04161704701480078FB
:101720007047000021000020014800787047000049
:10173000200000200020014908787047390000206F
:10174000094A1178094A084B1B7812F833004FF602
:10175000FF7202EA0020054A034B1B7802EBC3022A
:1017600052781043704700001C000020F600002053
:1017700001480078704700002C00002010B5044696
:10178000402202492046FEF701FD10BDB6000020B0
:1017900000BFFEE710B540F2CF2140F21F30FFF747
:1017A00069FBFFF77DF9FFF7D5F964220249034889
:1017B00000F000F910BD00009C11002090110020E5
:1017C00010B500F0C5FE00F062F800F02FF84FF4FD
:1017D000165000F002F900F0E1F800F007F800F010
:1017E000A9F8FFF7D7FF00F005F810BD10B5FFF717
:1017F00021FA10BD10B5FFF751FA0020FFF7A8FA43
:101800000120074908704FF47A70064908804FF6A6
:10181000FF700549088001F039FF0349088010BDB9
:10182000390000203C0000203A00002010B5FFF7EE
:10183000BBFA10BD10B540210648FEF7C0FC0020E1
:101840000549087005490870054908700549086090
:1018500010BD0000B6000020080000200900002094
:101860000A0000200C000020704730B50B46002411
:10187000048044808280C4808360002104E00024CE
:1018800085686C544C1C21B29142F8DB30BD10B518
:10189000FFF790FA10BD00000CB5002000218DF874
:1018A00000108DF801108DF803108DF807108DF8D9
:1018B00002108DF804108DF806108DF80510102117
:1018C0000A4A11700021517000BF08E0084901EB7D
:1018D000C001009A0A60019A4A60411C08B21028AF
:1018E000F4DB0349014A51600CBD000014000020E4
:1018F000F60000201CB5FFF7CFFF4FF6FF74201253
:101900008DF80000E0B28DF80100FF208DF8030093
:1019100078208DF80700684600F08AF81CBD7047F3
:1019200010B5FFF787FFFFF79FFFFFF7F8FFFFF7FF
:10193000E1FF10BD30B5164800684FF47A72B0FB75
:10194000F2F1B1F1807F01D301201DE021F07F4051
:10195000401E4FF0E022506150170F22002807DA96
:1019600013071D0E0B4B00F00F04241F1D5503E041
:1019700013071C0E084B1C5400BF00204FF0E02240
:10198000906107201061002008B100BFFEE730BD64
:101990005400002018ED00E000E400E010B54721FD
:1019A00040F2E730FFF738FA472140F2E730FFF71F
:1019B00095FA10BD30B50B46002404804480828027
:1019C000C4808360002105E00024856825F811406B
:1019D0004C1C21B29142F7DB30BD10B5044600F03B
:1019E00005F82046FFF7AAFA10BD000010B5002444
:1019F00006E000200A4908550A490855601C04B24F
:101A0000B4F5006FF5DB4FF4006205490648FFF7B7
:101A10002CFF4FF4006203490448FFF726FF10BD76
:101A2000900100209009002078010020840100200E
:101A300010B5014601220C4843780078401E9842B8
:101A400004DC0AB9012010BD0020FCE706484078FC
:101A5000401C054C6070054800EBC3000C68046036
:101A60004C6844601046EEE714000020F6000020A9
:101A700070B5044612480088401C11490880084689
:101A80000088A0421BDB002008804FF480710D48C5
:101A9000FFF736FEC0F10100C5B22A464FF480714F
:101AA0000848FFF736FE04210748FFF729FEC0F17A
:101AB0000100C5B22A4604210348FFF72AFE70BD83
:101AC00006000020000801400014014000BFFEE7AE
:101AD0007047000000F01F0201219140024A4309B3
:101AE00042F823107047000080E200E000F01F027F
:101AF00001219140024A430942F823107047000037
:101B000080E200E070B5002100230F22C47804B306
:101B1000154C246804F4E064C4F5E064210AC1F1C2
:101B20000403CA40447804FA03F184781440214342
:101B300009010E4C0678A155047804F01F05012414
:101B4000AC4005786D11AD0005F1E025C5F8004108
:101B500009E0047804F01F050124AC40044D067828
:101B6000761145F8264070BD0CED00E000E400E081
:101B700080E100E002490143024A11607047000021
:101B80000000FA050CED00E070B504460025207851
:101B9000012805D02078022802D02078032804D11B
:101BA00001252046FEF746FFE087284670BD7047B6
:101BB00010B58EB0342101A8FEF701FB0024FFF719
:101BC000ADFDB8B10C480078401C0B490870FEF719
:101BD000CBFA032190FBF1F201FB1200C01C064975
:101BE0000978884204DC00200349087000F076FB85
:101BF000FEF74AFF0EB010BD050000202DE9FE4F94
:101C0000FFF792FD002873D0012102A800F04EFBDF
:101C100018B19DF8080000F0B5F801F0A5FD0446E4
:101C2000FEF7ACFA33480088401C3249088032483D
:101C30000578FEF799FA0446C01704EB5060C0110E
:101C4000A4EBC01005EBD57100EB610014302949FD
:101C50000988884247DC01A800F0FEFA00283FD03E
:101C6000FEF704FFBDF80400FEF743FC8046FEF7D4
:101C70005EFC06464FF06632204BFEF759FB0446E9
:101C8000FEF780FC00900098FEF751FC80461C4A4D
:101C90001C4BFEF74AFB06461B4A1C4BFEF7BAFBE1
:101CA000044600221A4BFEF79CFA8246FEF76AFCB5
:101CB00000900098FEF722FC1649174A12788854C3
:101CC00015480078401C144908700846007801281F
:101CD00006DB01210F4800F02DFB00200E490870A3
:101CE000002004490880FA20FFF7C2FEFEF7D2FE6A
:101CF000BDE8FE8F020000200000002066664A3F1B
:101D0000E17A14AE47E1F63F22FDF675E09C713FA3
:101D1000000039407000002004000020F8B504469F
:101D2000207813490978884200D1F8BD20781049FD
:101D3000087001F0ABFC2179E27841EA0221884287
:101D400008D16078012803D1A07800F07CFB00E086
:101D500000BF0AE0607900902579E67845EA06231D
:101D6000A2786178207800F0BEFA00BFDDE70000BD
:101D70001000002010B504463D21204600F0DAFA9C
:101D800010BD000030B5B1B00446402111A8FEF7E7
:101D900016FA28E001A8FFF7F1FC402201A921A8CA
:101DA000FEF7F4F99DF88400012804D002280AD037
:101DB000032816D110E00FA001F02EFC0DF18500D4
:101DC000FFF7D8FF0EE00DA001F026FC0DF1850015
:101DD00000F010FF054605E00DF18500FFF79EFFBE
:101DE00000E000BF00BF204600F06EFE0028D1D109
:101DF00031B030BD444154410D0A00000D0A524F2C
:101E00005554450D0A0000000146C88808B9012054
:101E100070470020FCE7000001460020034A50689C
:101E200020F440400843506070470000001002401A
:101E300029B1064A52690243044B5A6104E0034A3D
:101E400052698243014B5A61704700000010024002
:101E500029B1064AD2690243044BDA6104E0034A1D
:101E6000D2698243014BDA617047000000100240E2
:101E700029B1064A92690243044B9A6104E0034A7D
:101E800092698243014B9A61704700000010024042
:101E900029B1064AD2680243044BDA6004E0034ADF
:101EA000D2688243014BDA607047000000100240A4
:101EB0000F48006840F001000D490860084640687E
:101EC0000C4908400A494860084600680A49084029
:101ED000074908600846006820F48020086008462A
:101EE000406820F4FE0048604FF41F00886070478F
:101EF000001002400000FFF8FFFFF6FE30B50021A1
:101F00000022002400232D4D6D6805F00C0121B145
:101F1000042905D0082923D105E0294D056022E0D8
:101F2000274D05601FE0254D6D6805F47012234DA7
:101F30006D6805F48034022505EB92421CB9214DF1
:101F4000554305600BE01D4D6D6805F400351DB16E
:101F50001C4D5543056002E0194D5543056002E0F4
:101F6000174D056000BF00BF144D6D6805F0F0010E
:101F70000909154D6B5C0568DD4045600F4D6D68C6
:101F800005F4E061090A104D6B5C4568DD40856031
:101F90000A4D6D6805F46051C90A0B4D6B5C4568CC
:101FA000DD40C560054D6D6805F44041890B074D66
:101FB0006B5CC568B5FBF3F5056130BD00100240F0
:101FC00000127A0000093D003F0000204F00002071
:101FD00010B501460022002300204A11012A02D137
:101FE000094C236806E0022A02D1074C236A01E06B
:101FF000054C636A01F01F02012494401C400CB19F
:10200000012000E0002010BD00100240024840689E
:1020100000F00C0070470000001002400146002054
:10202000034A506820F0F0000843506070470000F9
:10203000001002401149096821F480310F4A1160F3
:102040001146096821F480211160B0F5803F03D06A
:10205000B0F5802F0ED106E00849096841F48031BF
:10206000064A116007E00549096841F4A021034AC6
:10207000116000E000BF00BF704700000010024088
:1020800001460020034A506820F4E0600843506095
:10209000704700000010024001460020034A5068CB
:1020A00020F4605040EAC1005060704700100240C8
:1020B00001490866704700000000424202460020C5
:1020C000044B586820F47C1042EA01031843014B8A
:1020D000586070470010024001460020034A5068D3
:1020E00020F00300084350607047000000100240D9
:1020F00038B5002000900024002500BF3120FFF7F4
:1021000067FF05460098401C00900098B0F5A06F4E
:1021100001D0002DF2D03120FFF75AFF08B1012481
:1021200000E00024204638BD2DE9F04107460C466A
:102130000026FFF71DFBE8B9FFF7FCFAD0B1052038
:10214000FFF7D8F8FFF7F6FA20B14FF47A702A4972
:1021500008801EE001F008FB054600BFFFF7EAFA21
:1021600020B901F001FB401B6428F7D96420FFF778
:10217000C1F80EE001F0F8FA054600BFFFF7F8FAE3
:1021800020B101F0F1FA401B6428F7D96420FFF771
:10219000B1F81A48007808B9012607E00020FEF7D8
:1021A000D7FD06464FF47A7013490880B6B112483D
:1021B0000088A04212DB2146384600F08DFDA04287
:1021C00005DA0FA001F028FA0020BDE8F0810A48E6
:1021D0000088001B084908800120F6E71EB910A0FE
:1021E00001F01AFA06E004480088A04202DA12A0C0
:1021F00001F012FA0020E8E73C000020380000203F
:10220000526164696F53656E6444617461D6D0B481
:10221000AEBFDABBBAB3E5C7F8D2E7B3F60D0A0032
:10222000C7D0BBBBB4ABCAE4C4A3CABDCAA7B0DCA9
:102230003436320D0A000000CAFDBEDDCCABB6E07C
:102240006C6F7261BDD3CAD5BBBAB3E5C7F8D2E72C
:10225000B3F60D0A0000000070B504460025012207
:1022600021460348FFF70BF8C5B2284670BD0000B1
:102270009011002070B50446002501222146034834
:10228000FEF7DBFFC5B2284670BD000078010020D4
:1022900070B504460025012221460348FEF7CDFF14
:1022A000C5B2284670BD00006412002070B5044617
:1022B0000D4600262A4621460248FEF7BEFFC6B25A
:1022C000304670BD8401002010B5FEF7FDFFFFF71A
:1022D0002BF800F075FC00F07FF810BD10B5FFF78B
:1022E000F3FF10BD70472DE9F04190B005460E4652
:1022F00017461C46DDF8588003208DF800008DF845
:1023000001508DF802608DF8037021128DF80410D1
:10231000E1B28DF8051008F10100C1B28DF8061088
:102320006B460022FF21084600F032F810B0BDE8ED
:10233000F081000070B590B005460E464021684619
:10234000FDF73DFF01208DF80000324629460DF1D2
:102350000100FDF71BFFFFF7F3F904464FF6FF708E
:10236000844204D106A001F057F910B070BDE1B26B
:1023700020126B46002200F00BF800BFF5E70000CA
:10238000CEB4C1ACBDD34C6F7261CDF8C2E70000D2
:102390002DE9F04192B005460E4617461C464FF017
:1023A00000088DF805508DF806608DF807702046FE
:1023B000FFF7EAFB8046B8F1000F09DD4022214615
:1023C00002A8FDF7E3FE43210DF10500FFF7ACFE87
:1023D00012B0BDE8F081000010B590B04021684611
:1023E000FDF7EDFE01F052F9044620128DF80000D1
:1023F000E0B28DF8010007480749097800EBC100F9
:10240000C0788DF802003D21684600F007F810B052
:1024100010BD0000F60000201C00002030B591B077
:1024200004460D4602208DF804002A4621460DF18F
:102430000500FDF7ABFE01AB0022FF210846FFF7C8
:10244000A7FF11B030BD10B50446204600F002F8D9
:10245000002010BD014601480170704700000020B7
:1024600010B500F001F810BD0CB5002001900090EF
:102470003348006840F480303149086000BF30487C
:10248000006800F4003000900198401C0190009812
:1024900018B90198B0F5A06FF1D12948006800F48F
:1024A000003010B10120009001E000200090009861
:1024B000012843D12348006840F0100021490860FA
:1024C0000846006820F0030008600846006840F0F5
:1024D000020008601A484068194948600846406888
:1024E00048600846406840F480604860084640689C
:1024F00020F47C1048600846406840F4E8104860CA
:102500000846006840F08070086000BF0C48006812
:1025100000F000700028F9D00948406820F003005E
:10252000074948600846406840F00200486000BF24
:102530000348406800F00C000828F9D10CBD0000E9
:10254000001002400020024010B500F013F910BD49
:1025500010B51348006840F00100114908600846B2
:102560004068104908400E494860084600680E4916
:1025700008400B4908600846006820F48020086085
:102580000846406820F4FE0048604FF41F00886051
:10259000FFF766FF4FF000600449086010BD0000BF
:1025A000001002400000FFF8FFFFF6FE08ED00E01B
:1025B00010B50121880700F068F8012803D1012136
:1025C000800700F053F80A480088401C084908803A
:1025D00008460088022804DB002008800120054905
:1025E000087005480068401C0349086010BD0000E1
:1025F00028000020200000202400002010B5012128
:10260000064800F042F818B10121044800F02EF805
:102610000348008800F03CFB10BD000000040040AF
:102620002E00002010B501210D4800F02EF80128E1
:1026300003D101210A4800F019F80A480088401C1B
:1026400000B2084908800846B0F90000B0F57A7F6A
:1026500004DB0020088001200349087010BD000041
:10266000000C00402A00002021000020CA43028202
:10267000704721B1028842F00102028004E0028822
:102680004FF6FE731A400280704730B502460020B4
:1026900000230024158A05EA0103958905EA01044F
:1026A00013B10CB1012000E0002030BD1AB18389C4
:1026B0000B43838102E083898B4383817047828847
:1026C0004FF68F731A40828082880A438280704757
:1026D000002202881D4B98420ED01D4B98420BD011
:1026E000B0F1804F08D01B4B984205D01A4B98424E
:1026F00002D01A4B984204D14FF68F731A404B8880
:102700001A43174B984207D0164B984204D04FF605
:10271000FF431A40CB881A4302808B8883850B883D
:1027200003850A4B98420BD0094B984208D00E4BB8
:10273000984205D00D4B984202D00D4B984201D1E2
:102740000B7A03860123838270470000002C01402E
:10275000003401400004004000080040000C00402C
:1027600000100040001400400040014000440140BF
:10277000004801400448006820B103480068401E3A
:1027800001490860704700006800002008B5072074
:10279000009040F22551214800F0C5F858B125209D
:1027A000FFF798F91D4800F079F9C0B200909DF844
:1027B000000000F079FA0821184800F0A7F8012875
:1027C00006D10821154800F07DF8144800F066F99C
:1027D00040F22771114800F0A6F8F0B140F22771DD
:1027E0000E4800F078F82520FFF774F96846FFF7E7
:1027F00041FD012804D19DF80010084800F053F96C
:102800000748FFF701FB40B100200649087000228D
:1028100040F22771014800F0B0F808BD00380140CF
:10282000780100202C00002008B50720009040F21D
:102830002551214800F077F858B12620FFF756F9C6
:102840001D4800F02BF9C0B200909DF8000000F088
:1028500037FA0821184800F059F8012806D1082154
:10286000154800F02FF8144800F018F940F22771CD
:10287000114800F058F8F0B140F227710E4800F00E
:102880002AF82620FFF732F96846FFF701FD0128F4
:1028900004D19DF80010084800F005F90748FFF73B
:1028A000B3FA40B1002006490870002240F22771B7
:1028B000014800F062F808BD0044004064120020A6
:1028C0003E00002001F40072B2F5007F00D100BF8D
:1028D000CA430280704710B50022002340F66A14F4
:1028E000A14200D100BF0A1201249440A3B2DC43EC
:1028F000048010BD21B1828942F40052828104E03B
:1029000082894DF6FF731A4082817047024600208B
:10291000B1F5007F00D100BF13880B400BB101203F
:1029200000E00020704770B5024600240023002517
:10293000002040F66A16B14200D100BFC1F3421533
:1029400001F01F03012606FA03F3012D02D1968937
:10295000334006E0022D02D1168A334001E0968A08
:1029600033400C12012606FA04F41688344013B1E1
:102970000CB1012000E0002070BDF0B5034600243A
:1029800000260025002040F66A17B94200D100BF9A
:102990001846C1F3421401F01F06012707FA06F595
:1029A000012C01D10C3004E0022C01D1103000E0E8
:1029B00014301AB107682F43076002E00768AF437D
:1029C0000760F0BD2DE9F04786B005460E460024AD
:1029D000A24600BFA1460027B08900B100BF2F4624
:1029E0002C8A4CF6FF700440F08804432C82AC899A
:1029F0004EF6F3100440B0883189084371890843CA
:102A00000443AC81AC8A4FF6FF400440B0890443D4
:102A1000AC8201A8FFF772FA1F48874202D1DDF8A5
:102A200010A001E0DDF80CA0A88900F4004040B13E
:102A30000AEBCA0000EB0A1031684900B0FBF1F85C
:102A400007E00AEBCA0000EB0A1031688900B0FB0E
:102A5000F1F86420B8FBF0F004012009642101FBC7
:102A60001089A88900F4004040B1322000EBC90071
:102A7000B0FBF1F000F00700044308E0322000EB67
:102A800009106421B0FBF1F000F00F0004432C8129
:102A900006B0BDE8F0870000003801400146888894
:102AA000C0F308007047C1F30802828070474FF4FA
:102AB0001651016000218180C18001810C2141817A
:102AC00000218181704700002DE9F0410446002576
:102AD00000F04AFE07462C4E2C480078002839D0DA
:102AE0002B480068381AB0F5967F1DD22948007827
:102AF000401E345427480078401C26490870264858
:102B00000078401E2449087008460078002833DC0D
:102B10002048007840282FD1701E00F043F8054669
:102B200000201A49087027E01CA000F075FD012C58
:102B300003D0022C01D0032C1ED13F20164908706F
:102B40000120144908701048401E047001200F49EC
:102B5000087011E0012C03D0022C01D0032C0BD102
:102B60003F200D49087001200A4908700648401EA0
:102B7000047001200549087000F0F6FD0449086062
:102B80002846BDE8F0810000B700002009000020C1
:102B90000C000020080000200A000020B3ACCAB1DD
:102BA0000000000010B504462046FDF743FFB4F9CD
:102BB0003E10884201D1012010BD0020FCE700003A
:102BC00070B50A494A784C68FF250023002008E0C8
:102BD00004EBC006F178A94201DA0D460346411C18
:102BE000C8B29042F4DB02490B7070BD14000020A3
:102BF0001C0000207CB5044600266178207800F097
:102C00002BFD0546002D05DBE9B2204600F01CF83F
:102C1000064616E020788DF8000060788DF80100F7
:102C2000A078FF2802DAA078401C00E0FF20C0B2A4
:102C30008DF8030064208DF807006846FEF7F8FE63
:102C4000064630467CBD00007CB503460E4D6C68E0
:102C500001209A7804EBC1052E6800966D680195F5
:102C6000FF2A09DC01D1FF2500E0551CEDB28DF8EB
:102C7000035064258DF8075004EBC105009E2E60BB
:102C8000019E6E607CBD00001400002000BFFEE7C6
:102C900031B50024012269460248FEF72DFCC4B27A
:102CA000204638BD9011002031B50024012269462C
:102CB0000248FEF7FDFBC4B2204638BD8401002067
:102CC00031B50024012269460248FEF7F1FBC4B287
:102CD000204638BD7012002070B506460C4600250F
:102CE000224631460948FEF7E3FBC5B2B5F5006F51
:102CF00004DA0748007808B9FEF724FCA54203DA95
:102D0000611B04A000F088FC284670BD78010020FB
:102D10002C0000205541525431B7A2CBCDBBBAB3E1
:102D2000E5C7F8D2E7B3F62CBBB9D2AA2564B8F64A
:102D3000D7D6BDDA0D0A000037B514460846064B53
:102D40006A46214600F0CCF804466946002000F0AF
:102D50005EFC20463EBD00000F36000802E008C8B9
:102D6000121F08C1002AFAD170477047002001E005
:102D700001C1121F002AFBD1704700002DE9FF5F3F
:102D8000DDE90220010DDDF838B0024318D044F629
:102D90001050A1F2FF3141430D140F98012820D0AB
:102DA000A5EB0B00401C5FEA000A4FF00004474E01
:102DB000DFF81C91A046504616D5CAF1000728E05E
:102DC0000F98012443A2012808D0002100980F9BEE
:102DD000C0E90021C0E90243BDE8FF9F6FEA0B0193
:102DE000F4E7CBF10000DEE7074612E0F80707D072
:102DF0002246334640464946FDF79AFA80468946C0
:102E00002246334610461946FDF792FA04460E460E
:102E10007F10002FEAD1DDE90201BAF1000F42462E
:102E20004B4602DAFDF784FA01E0FDF7F3FA0446B7
:102E30000E460022284BFDF78DFB03D84FF0FF30E4
:102E4000014607E00022254B20463146FDF7C9F92F
:102E5000FDF7C0FC102409E0002C0ADB0A22002345
:102E6000FDF7C2FB019B30321A55641E50EA010285
:102E7000F2D1641C019AC4F1110314440F9A012A7F
:102E800003D0012208430DD10AE0084304D00020FA
:102E90004FF0110B0F9080E7A3EB0B056D1E0DE0BB
:102EA0005B4504DD4FF0000205F1010504E003DAA3
:102EB0004FF00002A5F10105002AECD000980F990F
:102EC000C0E90231C0E9004586E700000000244067
:102ED0000000F03F300000000000F0430000E03F41
:102EE0002DE9FF4F95B09B468946064600250FE227
:102EF000252877D100242746F84A0121059400E0CF
:102F0000044316F8013F203B01FA03F01042F7D1C9
:102F100030782A2811D06FF02F033078A0F13002DA
:102F2000092A16D8059A44F0020402EB820203EB48
:102F300042021044761C0590EFE759F8042B0592E5
:102F4000002A03DA504244F40054059044F002048D
:102F5000761C30782E2816D116F8010F44F00404A0
:102F60002A280DD06FF02F023078A0F13003092B02
:102F700009D807EB870302EB4303C718761CF3E776
:102F800059F8047B761C30786C280FD006DC4C286E
:102F900017D068280DD06A2814D104E0742810D006
:102FA0007A280FD10DE044F400140AE044F48014B0
:102FB00001E044F440147278824202D104F5801496
:102FC000761C761C307866280BD013DC582877D016
:102FD00009DC002875D04528F6D04628F4D04728CB
:102FE0001AD19DE118E0632835D0642879D065288E
:102FF00012D195E1702873D008DC6728F1D06928D8
:103000006FD06E280DD06F2806D1B5E073282CD074
:10301000752875D0782874D05A46179990476D1C3A
:1030200075E1C4F30250022809D003280DD0D9F865
:10303000001004280DD00D6009F1040967E1D9F8EA
:103040000010EA17C1E90052F6E7D9F800100D8028
:10305000F2E70D70F0E719F8041B8DF8001000205E
:103060008DF80100EA46012003E059F804AB4FF067
:10307000FF3061074FF0000102D40DE008F10101BB
:103080008846B9420FDA8045F8DB1AF808100029A3
:10309000F4D108E008F1010188468142FADB1AF810
:1030A00008100029F6D105985B46A0EB08072146D9
:1030B0003846179A00F094FA284400EB080507E018
:1030C0004DE029E10DE01AF8010B5A461799904797
:1030D000B8F10108F7D25B4621463846179A13E14A
:1030E00042E00A220092C4F302524FF0000A022A80
:1030F00008D059F804CB032A4FEAEC710AD00DE04E
:1031000029E02AE009F1070121F00702F2E802C1F3
:10311000914609E00FFA8CFC4FEAEC71042A03D1C6
:103120004FFA8CFC4FEAEC71002907DA0A460021BD
:10313000DCF1000C61EB02012D2202E0220504D536
:103140002B228DF80420012203E0E20701D0202287
:10315000F7E7904659E00A2102E010220DE0102125
:103160004FF0000A00910BE010224FF0000A44F0EB
:1031700004040827009203E008224FF0000A00929E
:10318000C4F30252022A05D059F804CB0021032AC5
:1031900008D009E009F1070121F00702F2E802C1B5
:1031A000914605E01FFA8CFC042A01D10CF0FF0CBB
:1031B0004FF00008220728D5702806D0009B83F026
:1031C000100353EA0A0305D00EE040228DF80420D4
:1031D000012208E05CEA010206D030228DF80420CA
:1031E0008DF8050002229046009B83F0080353EA05
:1031F0000A030AD15CEA010201D1620705D5302237
:103200008DF804204FF001087F1E582804D034A008
:1032100003900EA802900DE036A0F9E753466046F1
:10322000009AFDF7E1F984460398825C0298401EFB
:10323000029002705CEA0100F0D1029806A9081A17
:1032400000F1200A600702D524F4803400E0012751
:10325000574502DDA7EB0A0000E0002000EB0A0161
:10326000009005984144401A0590E00306D45B465F
:103270002146179A059800F0B3F90544002706E0A7
:1032800001A85A46C05D179990476D1C7F1C4745A1
:10329000F6DBE0030CD55B462146179A059800F053
:1032A0009FF9054404E030205A46179990476D1C59
:1032B0000099481E00900029F5DC08E00298029968
:1032C0005A460078491C0291179990476D1CBAF133
:1032D0000001AAF1010AF1DC65E100000928010002
:1032E000303132333435363738396162636465667C
:1032F000000000003031323334353637383941423E
:10330000434445460000000000F058F90544761C8F
:10331000307800287FF4ECAD19B02846BDE8F08F76
:10332000620700D4062709F1070222F0070CFCE827
:103330000223E14603F000485FEA080C02D00FF2D6
:10334000702C0DE05FEA045C02D50FF2682C07E0F8
:103350005FEAC47C02D00FF2602C01E0AFF2700C87
:103360004FF0FF3823F00043CDF850C065280CD053
:1033700006DC452809D046281DD047283DD13DE030
:10338000662818D067287ED138E00021112F01DB94
:10339000112000E0781CCDE9000106A90EA8FFF776
:1033A000EDFCDDE90F010E9A03910021009207F177
:1033B000010A04914DE04FF000400097CDE9011063
:1033C00006A90EA8FFF7DAFCDDE90F0203920E9BB7
:1033D00011990022DDF80CA00093049211B9791C18
:1033E00000EB010AB7EB0A0004D4C0F1FF3007F18B
:1033F000010A0490AAEB0700019044E0012F00DAD3
:1034000001270021112F01DD112000E03846CDE910
:10341000000106A90EA8FFF7B1FCDDE90F010E9A25
:103420000391002104910092BA4621070CD403991C
:10343000514500DA8A46BAF1010F05DD009AAAF17A
:103440000101515C302908D0B84202DA10F1040FB2
:1034500006DA0121CDE9011015E0AAF10101E9E741
:10346000002805DC049901440491AAEB000102E064
:10347000411C514500DD8A460499401A401C0190C8
:103480004FF000400290200704D40198504501DB22
:10349000CDF8048000208DF84F0002980DF14F0701
:1034A000B0F1004F25D02B200E9002984FF002086B
:1034B00000280CDA404202902D200E9007E00A21ED
:1034C0000298FDF77BF83031029007F8011DB8F142
:1034D0000001A8F10108F2DC02980028EFD1791E62
:1034E0000E980870307800F0200040F0450007F892
:1034F000020D12A8C01B00F107081498007800B153
:10350000012000EB0A01019801EBE07105984144AC
:10351000401A401E0590E00306D45B462146179AE8
:10352000059800F05DF805441498007818B15A46E3
:10353000179990476D1CE00324D55B462146179AE6
:10354000059800F04DF805441CE00498002807DBBE
:10355000DDE90301884203DD0098405C179901E032
:10356000179930205A469047049805F10105401CF0
:1035700004900198401E019004D12E205A461799BC
:1035800090476D1CBAF10001AAF1010ADDDC05E0EB
:1035900017F8010B5A46179990476D1CB8F10001B6
:1035A000A8F10108F4DC5B462146179A0598ABE6C2
:1035B0002D0000002B000000200000002DE9F0414C
:1035C000044600251E461746880404D405E0394603
:1035D0002020B0476D1C641EF9D52846BDE8F08157
:1035E0002DE9F041044600251E469046C80301D54A
:1035F000302700E02027880404D505E041463846FE
:10360000B0476D1C641EF9D52846BDE8F0810A68F4
:10361000531C0B60107070470FB410B59AB00024A3
:10362000642101A8FCF7CBFD1C9818B91AB010BC96
:103630005DF814FB1DA8009001A8009A1C99FFF7E3
:103640007BFB0020009001A8FCF7C4FDC4B204B9C4
:10365000ECE700BFEAE7000030B502460B460A4837
:103660004578446800210AE014F83100904205D101
:1036700014F83100984201D148B230BD491CA9422A
:10368000F2DB4FF0FF30F8E71400002038B54FF6BA
:10369000FF7400200090124800882146884202D022
:1036A0000F48008838BD6A460221002000F062F809
:1036B00050B19DF800404FF6FF7000EA04249DF8D9
:1036C00001400748048003E0214606A0FFF7A4FF5D
:1036D000034801880EA0FFF79FFF2046E2E70000A5
:1036E0003A000020B6C1C8A14C6F7261C4A3BFE903
:1036F000BCC4B4E6C6F7B5D8D6B7CAA7B0DCA3AC8D
:10370000B5B1C7B0B5D8D6B725640D0A0000000022
:10371000735F616464726573733A25640D0A000017
:1037200010B5FEF707F810BDFEF74AF8FEF7F8F8F7
:1037300004A0FFF771FF03E0FEF760FAFEF738FA26
:10374000FAE70000496E69742053797374656D203F
:10375000686173206265656E2066696E697368656D
:10376000642E0D0A00000000014800687047000048
:10377000240000202DE9FC4106460D461746002096
:10378000019019A0006800908DF801608DF802503A
:103790000220FDF7DDFA0C20FDF7ACFD03216846A1
:1037A000FFF79AFA0C20FDF7A5FD032101A8FEF70B
:1037B0007DFD804600240AE001A8005D1DF804108C
:1037C000884202D00020BDE8FC81601CC4B2032CFA
:1037D000F2DB29463846FEF769FDA84201D10120F7
:1037E000F1E70020EFE70000C10001000C380008FD
:1037F00000000020700000005C2D00087C380008EC
:1038000070000020102200006C2D000864000000F1
:1038100000000000000000000000000000000000A8
:103820000000000000000000000000000000000098
:103830000000000000000000000000000000000088
:103840000000000000000000000000000000000177
:103850000203040102030406070809020406080023
:1038600000A24A040000000000000000010203045E
:0C3870000607080900000000000000002E
:0400000508000145A9
:00000001FF
